:100000000C943E000C945B000C945B000C945B0021
:100010000C945B000C945B000C94C7060C94EF07E7
:100020000C945B000C945B000C945B000C945B00E4
:100030000C945B000C946D050C945B000C945B00BD
:100040000C94B2030C945B000C945B000C945B006A
:100050000C94D50D0C945B000C945B000C945B002D
:100060000C945B000C945B000C94C90C0C945B002A
:100070000C949C0E0C945B000C945B0011241FBE2E
:10008000CFEFD0E1DEBFCDBF12E0A0E0B1E0ECE405
:10009000FBE202C005900D92A032B107D9F713E040
:1000A000A0E2B2E001C01D92AB34B107E1F70E94BB
:1000B00091010C94A4150C94000080910B038823EB
:1000C00021F180912602882301F580910B03809312
:1000D000F50210920B0380910C03809385028091AE
:1000E0000D038093CE0280910E038093D302809102
:1000F0000F038093A102809110038093DE02809110
:1001000011038093770281E0089580E00895809143
:10011000EE0282FF14C08091F9029091FA02895B8D
:100120009B4010F0F894FFCF8091FB029091FC026D
:100130008B3F910520F01092FC021092FB02089573
:100140000E945D00882309F483C08091F5028C3001
:1001500009F44EC08D30A0F48430C1F1853040F4F4
:10016000823081F1833080F5813009F071C025C083
:100170008A30D1F18B30D0F5853009F069C02BC0C1
:100180008C3109F443C08D3140F48E30A9F18E30AA
:1001900088F18F3009F05CC031C0813209F447C06A
:1001A000823220F48E3109F053C03BC0823209F410
:1001B00044C0833209F04CC046C080E060E040E0BB
:1001C00020E00FC082E003C082E006C081E06091C1
:1001D000850242E004C081E06091850241E0209107
:1001E000CE020E941004089581E009C082E007C099
:1001F00083E005C084E003C085E001C086E0609133
:10020000CE02409185020E94D20408958091CB02D3
:100210008F7090918502890F8093CB020E946402B7
:100220000895809185028F5F8093200208958091C8
:10023000CE0290E00E94780908958091CE0290E06D
:100240000E94B50908958091CE0290E00E94F209C3
:10025000089580912502882309F062C010921C0342
:100260008091DC029091DD0280931D038091D10288
:100270009091D20280931E038091D4029091D50276
:1002800080931F0380917E0290917F0280932003D0
:1002900080918E0290918F0280932103809186023B
:1002A00090918702809322030E948F0880932303FA
:1002B00085E00E94A4038093250384E00E94A403A8
:1002C0008093260383E00E94A4038093270382E0A7
:1002D0000E94A4038093280381E00E94A4038093DA
:1002E000290380E00E94A40380932A030E94E30272
:1002F00080932B030E94D30280932C030E947B03E4
:1003000080932D038091CB02809331038091200252
:100310008093320380912302882311F0809124027C
:100320000895EF92FF920F931F9380EC82B987E0BC
:1003300085B980E888B981E08BB911B888EF84B9B4
:1003400084E087B982EF8AB960E875E280E090E0E6
:100350000E944D0D0E9459050E944B030E94A70365
:100360000E94B9068BE00E94BB0C78940E94650540
:1003700080E091E00E94A40D0E9477028091F60235
:1003800081608093F60286E390E0A0E0B0E0809385
:100390004F0290935002A0935102B093520282E018
:1003A00090E0A0E0B0E08093E5029093E602A09395
:1003B000E702B093E80280E190E0A0E0B0E0809333
:1003C0004F0290935002A0935102B0935202609159
:1003D0005D0270915E0280915F02909160022091B7
:1003E000E5023091E6024091E7025091E802E09088
:1003F0004F02F090500200915102109152020E945F
:10040000BF0884E090E00E94790C6091E90270914D
:10041000EA024091DC025091DD0281E00E942F0A45
:100420009093E3028093E2026091710270917202F4
:100430004091D1025091D20282E00E942F0A909303
:10044000BB028093BA0260918C0270918D02409140
:10045000D4025091D50283E00E942F0A909370023B
:1004600080936F026091690270916A0240917E02EE
:1004700050917F0284E00E942F0A9093B1028093F2
:10048000B0026091C0027091C10240918E02509101
:100490008F0285E00E942F0A90936402809363028A
:1004A00060915302709154024091860250918702EC
:1004B00086E00E942F0A90937402809373020E9438
:1004C000A0000E9429019DCF81E58CBD8091CB02C7
:1004D0008EBD0DB407FEFDCF809161028EBD0DB4BF
:1004E00007FEFDCF1CBC2E9A00002E9808950F9396
:1004F0001F9300E08091CB0280618093CB0210E0DB
:100500000BC010920803109207038091070390918B
:1005100008030A97D0F302C024E630E021503040AF
:100520008FEF2F3F380769F70E9464028091CB025A
:10053000880F8093CB021F5F143071F70F5F043078
:10054000C9F628EC30E00AC01092080310920703A5
:1005500080910703909108030A97D0F3215030400F
:100560008FEF2F3F380781F780EF8093CB020E94F7
:10057000640224EF31E00AC01092080310920703CE
:1005800080910703909108030A97D0F321503040DF
:100590008FEF2F3F380781F71092CB020E94640241
:1005A0001F910F91089580B18095881F8827881F1B
:1005B000069B8E5F1A9B8C5F199B885F189B805FE0
:1005C000379B805E08951F938091EB02863010F474
:1005D00010E00CC086E08093EB028091E9029091DC
:1005E000EA029093E3028093E20211E08091DB0241
:1005F000863060F086E08093DB021E5F809171029E
:10060000909172029093BB028093BA028091D002C3
:10061000863060F086E08093D0021C5F80918C026F
:1006200090918D029093700280936F028091D60218
:10063000863060F086E08093D602185F8091690270
:1006400090916A029093B1028093B0028091CC02A3
:10065000863060F086E08093CC02105F8091C0020B
:100660009091C10290936402809363028091800212
:10067000863060F086E080938002105E80915302A5
:100680009091540290937402809373020E946402CA
:10069000812F1F91089580E280937C0083EE8093E8
:1006A0007A0010927B0008951092780010927900E1
:1006B00090917C00907E90937C0090917C00982B90
:1006C00090937C0080E090E00000019623E0883E5B
:1006D0009207D1F780917A00806480937A008091AC
:1006E0007A0084FFFCCF80917A00806180937A0049
:1006F0008091790008951F9385E00E94540310E0D3
:10070000853608F011E084E00E945403853608F035
:100710001E5F83E00E945403853608F01C5F82E070
:100720000E945403853608F0185F81E00E9454034C
:10073000853608F0105F80E00E945403853608F08B
:10074000105E812F1F9108950E945403089582E046
:1007500084BD85BD82E387BDEEE6F0E080818260E6
:10076000808308951F920F920FB60F9211242F933A
:100770003F938F939F9380912102909122028F3F0C
:10078000910559F050F0109222021092210285B189
:10079000886185B98BB1806F8BB92091210230912E
:1007A00022022F5F3F4F309322022093210280913B
:1007B000E2029091E3022817390708F02C98809103
:1007C000BA029091BB022817390708F02B98809144
:1007D0006F02909170022817390708F05F98809196
:1007E000B0029091B1022817390708F05E98809105
:1007F0006302909164022817390708F05D98809190
:100800007302909174022817390708F05C989F9141
:100810008F913F912F910F900FBE0F901F901895C1
:10082000A82F562FB22F823051F485E580936102B4
:100830008091CB02807F85608093CB020FC0909126
:10084000CB02813031F48AEA80936102987F9A600A
:1008500003C010926102907F9093CB02423029F541
:10086000252F30E0852F6AE00E94CC14B89FC0018C
:100870001124B901681B790B7093EA026093E902B5
:10088000709372026093710270938D0260938C0278
:1008900030936A02209369023093C1022093C00210
:1008A00030935402209353023FC0E52FF0E04130D3
:1008B00019F5F093EA02E093E902F0937202E093F3
:1008C0007102F0938D02E0938C02852F6AE00E9402
:1008D000CC14B89FC00111249F01281B390B309301
:1008E0006A02209369023093C1022093C0023093C0
:1008F00054022093530218C0F093EA02E093E902F5
:10090000F0937202E0937102F0938D02E0938C02F7
:10091000F0936A02E0936902F093C102E093C0028F
:10092000F0935402E0935302A330C9F5852F90E071
:100930009093EA028093E90256955695252F30E070
:10094000309372022093710290938D0280938C02F7
:1009500090936A02809369023093C1022093C0028F
:100960009093540280935302423051F485E980936E
:1009700061028091CB02887F8A608093CB020FC096
:100980009091CB02413031F48AE680936102907FEE
:10099000956003C010926102907F9093CB020E94F9
:1009A000640208958130A1F4209161022C7F20938C
:1009B0006102842F90E09093EA028093E902623012
:1009C00011F4216015C0613009F070C0226010C0C0
:1009D0008230B1F420916102237F20936102842F41
:1009E00090E09093720280937102623021F424604F
:1009F000209361025BC0613009F058C02860F8CFD5
:100A00008330A1F4209161022F7C20936102842F16
:100A100090E090938D0280938C02623011F42061FB
:100A2000E7CF613009F042C02062E2CF843099F410
:100A3000209161022F7320936102842F90E09093A4
:100A40006A0280936902623011F42064D1CF613070
:100A500069F52068CDCF853099F42091CB022C7FA9
:100A60002093CB02842F90E09093C1028093C00228
:100A7000623011F4216018C06130C1F4226014C0EA
:100A80008630A1F42091CB02237F2093CB02842FC8
:100A900090E09093540280935302623011F42460EA
:100AA00003C0613019F428602093CB020E946402D5
:100AB0000895109280008AE08093810089EF90E091
:100AC0009093890080938800089582E080936F005E
:100AD0007894089510926F0008951F920F920FB6A8
:100AE0000F9211242F938F939F9380918302909163
:100AF0008402019690938402809383028091A602DF
:100B00009091A70201969093A7028093A6028091EC
:100B10007502909176020196909376028093750209
:100B200080917C0290917D02019690937D0280934A
:100B30007C028091E0029091E10201969093E102A3
:100B40008093E00280915702909158020196909311
:100B500058028093570280918302909184028152BF
:100B60009E4480F01092DD021092DC028091E90236
:100B70009091EA028536910528F08091EB028F5F13
:100B80008093EB028091A6029091A70281529E442D
:100B900080F01092D2021092D10280917102909155
:100BA00072028536910528F08091DB028F5F809379
:100BB000DB02809175029091760281529E4480F012
:100BC0001092D5021092D40280917102909172021B
:100BD0008536910528F08091D0028F5F8093D002F6
:100BE00080917C0290917D0281529E4480F010920F
:100BF0007F0210927E028091690290916A0285368E
:100C0000910528F08091D6028F5F8093D602809163
:100C1000E0029091E10281529E4480F010928F0296
:100C200010928E028091C0029091C102853691058A
:100C300028F08091CC028F5F8093CC028091570284
:100C40009091580281529E4480F010928702109237
:100C5000860280915302909154028536910528F0C6
:100C6000809180028F5F8093800280910703909132
:100C7000080301969093080380930703809109036A
:100C80008F5F8093090381508A3008F46AC0809195
:100C9000F60280FF09C08091F7029091F802019658
:100CA0009093F8028093F7028091F60281FF09C0C9
:100CB0008091F9029091FA0201969093FA02809342
:100CC000F9028091F60282FF09C08091FB029091A7
:100CD000FC0201969093FC028093FB028091F60245
:100CE00083FF09C08091FD029091FE0201969093CE
:100CF000FE028093FD028091F60284FF09C080917C
:100D0000FF02909100030196909300038093FF02ED
:100D10008091F60285FF09C0809101039091020342
:100D2000019690930203809301038091F60286FF5F
:100D300009C08091030390910403019690930403EA
:100D4000809303038091F60287FF09C08091050319
:100D500090910603019690930603809305031092E9
:100D600009039F918F912F910F900FBE0F901F90AD
:100D700018959CE0909368001BBA10926B0010923B
:100D80006C0088E780936D009093730008951F9224
:100D90000F920FB60F9211242F933F935F936F938F
:100DA0007F938F939F93AF93BF93369B08C080919F
:100DB000DF02882321F481E08093DF0208C03699A6
:100DC00036C08091DF02882391F11092DF022091DA
:100DD0008302309184028091EC029091ED02820FA7
:100DE000931F969587959093ED028093EC02609106
:100DF000EC027091ED0280EE9DEA0E94D81470938F
:100E0000DD026093DC028091DC029091DD028F3F75
:100E1000910539F030F08FEF90E09093DD028093F0
:100E2000DC0210928402109283021092EB02359B36
:100E300008C080919002882321F481E08093900281
:100E400008C0359936C080919002882391F11092A4
:100E500090022091A6023091A7028091AE0290915B
:100E6000AF02820F931F969587959093AF02809360
:100E7000AE026091AE027091AF0280EE9DEA0E94D8
:100E8000D8147093D2026093D1028091D1029091D4
:100E9000D2028F3F910539F030F08FEF90E09093C0
:100EA000D2028093D1021092A7021092A602109251
:100EB000DB02349B08C08091E402882321F481E0A6
:100EC0008093E40208C034993AC08091E4028823F8
:100ED000B1F11092E4022091750230917602809176
:100EE000590290915A02820F931F9695879590937D
:100EF0005A02809359026091590270915A0280EE11
:100F00009DEA0E94D8147093D5026093D402809118
:100F1000D4029091D5028F3F910539F030F08FEFD8
:100F200090E09093D5028093D4028091D402909166
:100F3000D50210927602109275021092D002339B65
:100F400008C08091CF02882321F481E08093CF02F2
:100F500008C0339936C08091CF02882391F1109256
:100F6000CF0220917C0230917D028091A802909165
:100F7000A902820F931F969587959093A90280935B
:100F8000A8026091A8027091A90280EE9DEA0E94D9
:100F9000D81470937F0260937E0280917E029091BC
:100FA0007F028F3F910539F030F08FEF90E0909302
:100FB0007F0280937E0210927D0210927C0210923A
:100FC000D602BF91AF919F918F917F916F915F9169
:100FD0003F912F910F900FBE0F901F9018951F9269
:100FE0000F920FB60F9211242F933F935F936F933D
:100FF0007F938F939F93AF93BF934B9B08C0809138
:10100000C202882321F481E08093C20208C04B9978
:1010100036C08091C202882391F11092C2022091C1
:10102000E0023091E1028091810290918202820F70
:10103000931F969587959093820280938102609189
:1010400081027091820280EE9DEA0E94D814709312
:101050008F0260938E0280918E0290918F028F3F5B
:10106000910539F030F08FEF90E090938F028093EC
:101070008E021092E1021092E0021092CC024A9B82
:1010800008C08091CD02882321F481E08093CD02B5
:1010900008C04A9936C08091CD02882391F1109200
:1010A000CD022091570230915802809155029091C3
:1010B0005602820F931F96958795909356028093C0
:1010C0005502609155027091560280EE9DEA0E9491
:1010D000D814709387026093860280918602909163
:1010E00087028F3F910539F030F08FEF90E09093B9
:1010F0008702809386021092580210925702109233
:101100008002BF91AF919F918F917F916F915F917D
:101110003F912F910F900FBE0F901F9018956091E7
:10112000EC027091ED026115710519F480E090E018
:1011300005C080E197E20E94D814CB01BC0180E099
:1011400090E00E943F1220E030E040E550E40E9431
:10115000C1100E94EB0E80E090E00E943F1226E654
:1011600036E646E650E40E94C1100E94EB0EDC0118
:10117000CB0164E670E00E94D814CB010895EF9291
:10118000FF920F931F931092AA021092AB0210923B
:10119000AC021092AD021092910210929202109243
:1011A0009302109294021092780210927902109297
:1011B0007A0210927B021092C7021092C80210921B
:1011C000C9021092CA0210929502109296021092D1
:1011D0009702109298021092F1021092F20210926D
:1011E000F3021092F4021092990210929A02109255
:1011F0009B0210929C021092BC021092BD021092AF
:10120000BE021092BF021092650210926602109206
:1012100067021092680210929D0210929E02109234
:101220009F021092A0021092B6021092B702109282
:10123000B8021092B902109288021092890210929C
:101240008A0210928B026093D7027093D802809327
:10125000D9029093DA022093A2023093A302409322
:10126000A4025093A502E092C302F092C40200933C
:10127000C5021093C6022091D7023091D802409146
:10128000D9025091DA022F5F3F4F4F4F5F4F6FEF00
:101290007FE780E090E00E942115C901DA01809388
:1012A0006B0290936C02A0936D02B0936E0220913A
:1012B000A2023091A3024091A4025091A5022F5F97
:1012C0003F4F4F4F5F4F6FEF7FEF8FEF9FE30E94D6
:1012D0002115C901DA018093B2029093B302A09361
:1012E000B402B093B5021F910F91FF90EF90089553
:1012F000EF92FF920F931F938130910569F486E37B
:1013000090E0A0E0B0E080935D0290935E02A09335
:101310005F02B09360020AC0029711F510925D025D
:1013200010925E0210925F021092600260915D0264
:1013300070915E0280915F02909160022091E502BF
:101340003091E6024091E7025091E802E0904F02AE
:10135000F090500200915102109152020E94BF0879
:101360001F910F91FF90EF900895EF92FF920F93CE
:101370001F938130910569F482E090E0A0E0B0E035
:101380008093E5029093E602A093E702B093E8020F
:101390000AC0029711F51092E5021092E60210922F
:1013A000E7021092E80260915D0270915E02809106
:1013B0005F02909160022091E5023091E602409137
:1013C000E7025091E802E0904F02F0905002009145
:1013D0005102109152020E94BF081F910F91FF907D
:1013E000EF900895EF92FF920F931F938130910534
:1013F00069F480E190E0A0E0B0E080934F02909328
:101400005002A0935102B09352020AC0029711F504
:1014100010924F02109250021092510210925202FA
:1014200060915D0270915E0280915F029091600216
:101430002091E5023091E6024091E7025091E802E6
:10144000E0904F02F0905002009151021091520230
:101450000E94BF081F910F91FF90EF9008952F9267
:101460003F925F926F927F928F929F92AF92BF92C4
:10147000CF92DF92EF92FF920F931F93DF93CF9360
:10148000CDB7DEB728970FB6F894DEBF0FBECDBF3D
:10149000582E7E836D831A0121E0821789F4E09033
:1014A000AA02F090AB020091AC021091AD026090E4
:1014B000990270909A0280909B0290909C026AC060
:1014C00032E0831789F4E0909102F090920200914B
:1014D0009302109194026090BC027090BD028090C3
:1014E000BE029090BF0256C063E0861789F4E09078
:1014F0007802F090790200917A0210917B0260905C
:10150000650270906602809067029090680242C007
:1015100084E0581689F4E090C702F090C802009168
:10152000C9021091CA0260909D0270909E02809044
:101530009F029090A0022EC095E0591689F4E09089
:101540009502F09096020091970210919802609097
:10155000B6027090B7028090B8029090B9021AC09B
:10156000A6E05A1639F0EE24FF248701662477247A
:10157000430110C0E090F102F090F2020091F302FA
:101580001091F402609088027090890280908A0223
:1015900090908B028D819E81821993095C01CC24ED
:1015A000B7FCC094DC2C80916B0290916C02A091EE
:1015B0006D02B0916E028A159B05AC05BD058CF4D9
:1015C0002091D7023091D8024091D9025091DA028D
:1015D00060916B0270916C0280916D0290916E022D
:1015E00036C080916B0290916C02A0916D02B09117
:1015F0006E02B095A095909581959F4FAF4FBF4FCC
:10160000A816B906CA06DB06C4F42091D7023091A9
:10161000D8024091D9025091DA0260916B02709128
:101620006C0280916D0290916E02909580957095FC
:1016300061957F4F8F4F9F4F0AC02091D702309105
:10164000D8024091D9025091DA02C601B5010E9438
:10165000AD1478876F83EA0CFB1C0C1D1D1D809157
:10166000B2029091B302A091B402B091B5028E156E
:101670009F05A007B1078CF42091B2023091B3020C
:101680004091B4025091B5021FEFA12E1FEFB12E71
:101690001FEFC12E1FE3D12E3AC08091B20290916C
:1016A000B302A091B402B091B502B095A095909507
:1016B00081959F4FAF4FBF4FE816F9060A071B07EA
:1016C000B4F48091B2029091B302A091B402B091AF
:1016D000B50222273327A901281B390B4A0B5B0BC4
:1016E000B1E0AB2EB12CC12CB0ECDB2E10C02091A0
:1016F000A2023091A3024091A4025091A502C80118
:10170000B7010E94AD145B016C01A80197018091A3
:10171000C3029091C402A091C502B091C602898310
:101720009A83AB83BC83C101AA2797FDA095BA2FEA
:10173000E1E05E1689F42093AA023093AB02409355
:10174000AC025093AD028093990290939A02A093B9
:101750009B02B0939C0263C0F2E05F1689F4209371
:10176000910230939202409393025093940280939B
:10177000BC029093BD02A093BE02B093BF024FC0C3
:1017800063E0561689F420937802309379024093EF
:101790007A0250937B028093650290936602A09335
:1017A0006702B09368023BC0E4E05E1689F42093C0
:1017B000C7023093C8024093C9025093CA02809373
:1017C0009D0290939E02A0939F02B093A00227C017
:1017D000F5E05F1689F420939502309396024093CA
:1017E0009702509398028093B6029093B702A09309
:1017F000B802B093B90213C066E0561681F4209384
:10180000F1023093F2024093F3025093F40280937A
:10181000880290938902A0938A02B0938B02EF8191
:10182000F8857F010027F7FC0095102F681A790AC8
:101830008A0A9B0AC401B30129813A814B815C81E8
:101840000E94AD14882777FD8095982FE60EF71E2D
:10185000081F191FEA0CFB1C0C1D1D1DC801B70138
:1018600020E230E040E050E00E9421152F3F31059A
:1018700021F01CF02FEF30E006C0FFEF21303F07D2
:1018800014F420E030E08D819E8144971CF420E028
:1018900030E008C0C90181509F4F62E070E00E94B3
:1018A000EC149B01C90128960FB6F894DEBF0FBE59
:1018B000CDBFCF91DF911F910F91FF90EF90DF90FF
:1018C000CF90BF90AF909F908F907F906F905F90E0
:1018D0003F902F9008951092080310920703282F2D
:1018E00030E0809107039091080382179307C8F3B3
:1018F00008959C010CC01092080310920703809178
:101900000703909108030A97D0F321503040211526
:10191000310589F7089580EC82B987E085B980E8C0
:1019200088B981E08BB911B888EF84B984E087B9B0
:1019300082EF8AB960E875E280E090E00E944D0D88
:10194000109280008AE08093810089EF90E090936C
:1019500089008093880080E280937C0083EE8093EE
:101960007A0010927B000E94B90682E080936F009B
:10197000789478940895F8948093BA008FEF8093C8
:10198000BB0084E08093BC00789485EC8093BC001D
:1019900008951F920F920FB60F9211248F939F9369
:1019A000EF93FF938091B900803909F45BC08139CE
:1019B00048F4803709F452C08038A9F1803609F024
:1019C00060C02CC0883A61F0893A20F4803A09F06E
:1019D00058C04EC0883B51F0803C09F052C014C042
:1019E00084E08093270281E0809325028091270282
:1019F0008430E1F580912802E82FF0E0E55EFC4FAD
:101A000090819093BB0026C010922702109228026A
:101A10001092250281E08093230228C081E0809308
:101A2000260282E01CC080912702823041F480911E
:101A3000BB00809328028093240283E010C083308F
:101A4000A9F480912802E82FF0E09091BB00E55FB7
:101A5000FC4F90838F5F8093280208C081E08093C1
:101A6000270204C08091BB0080930A0385EC0AC062
:101A700085E08093270285EC8093BC0010922602BB
:101A800003C084E88093BC00FF91EF919F918F91F8
:101A90000F900FBE0F901F9018959B01AC0194E022
:101AA000220F331F441F551F9A95D1F760E07DE246
:101AB00081E391E00E94FF142150304040405040AB
:101AC0001092C000BB27A52F942F832F8093C500B1
:101AD0002093C40088E98093C10086E08093C2000F
:101AE00008959B01AC0174E0220F331F441F551F62
:101AF0007A95D1F760E07DE281E391E00E94FF14E6
:101B000021503040404050401092C800BB27A52FC4
:101B1000942F832F8093CD002093CC0088E980936D
:101B2000C90086E08093CA0008958091C00087FFB5
:101B3000FCCF8091C6000895982F8091C00085FF4A
:101B4000FCCF9093C6000895FC0107C08091C000AF
:101B500085FFFCCF9093C600319690819923B1F711
:101B600008958091C80087FFFCCF8091CE00089532
:101B7000982F8091C80085FFFCCF9093CE00809174
:101B8000C80085FFFCCF0895FC010BC08091C80000
:101B900085FFFCCF9093CE008091C80085FFFCCFDD
:101BA00031969081992391F708951F920F920FB665
:101BB0000F9211240F900FBE0F901F90189508954B
:101BC00090931601809315010895282F8091F702B4
:101BD0009091F802893C9105E0F010924E0210922B
:101BE0004D0210924C0210924B0210924A0280E277
:101BF000EAE2F2E0DF011D928A95E9F710922902EC
:101C00008091F6028E7F8093F6021092F802109275
:101C1000F70280914E02823071F1833030F48823D4
:101C200061F0813009F087C01AC08430C9F1843076
:101C300070F1853009F07FC04EC0213069F42093E7
:101C40004E0280914D028F5F80934D028091F6028B
:101C500081608093F602089510924E0208952F3FFE
:101C600039F480914D028F5F80934D0282E02CC049
:101C700010924E022BC020934C02255020934B0211
:101C800080914D028F5F80934D0283E01DC02093B1
:101C90004A0280914D028F5F80934D0284E014C010
:101CA00090912902E92FF0E0E65DFD4F20839F5FD0
:101CB0009093290280914D028F5F80934D02809115
:101CC0004B02981719F485E080934E021092F802A7
:101CD0001092F702089590914D029F5F90934D02EC
:101CE000243069F480914C02981749F4E091150171
:101CF000F091160180914A026AE272E00995109211
:101D00004E0210924D0210924C0210924B02109211
:101D10004A0280E2EAE2F2E0DF011D928A95E9F7E9
:101D2000109229028091F6028E7F8093F602109223
:101D3000F8021092F70208951F920F920FB60F92B9
:101D400011242F933F934F935F936F937F938F93C0
:101D50009F93AF93BF93EF93FF938091C00085FF54
:101D6000FCCF81E68093C6008091CE000E94E50DF5
:101D7000FF91EF91BF91AF919F918F917F916F9163
:101D80005F914F913F912F910F900FBE0F901F9039
:101D900018950F931F93DF93CF93CDB7DEB760975E
:101DA0000FB6F894DEBF0FBECDBF8E010F5F1F4F81
:101DB000B8014AE050E00E947315C8010E94A40DCA
:101DC00060960FB6F894DEBF0FBECDBFCF91DF9106
:101DD0001F910F910895EF92FF920F931F937B0134
:101DE0008C0120E030E040E05FE40E94BB118823DA
:101DF0008CF0C801B70120E030E040E05FE40E94D1
:101E000063100E94EB119B01AC0120503040404018
:101E1000504806C0C801B7010E94EB119B01AC01FC
:101E2000B901CA011F910F91FF90EF900895A0E0B2
:101E3000B0E0EDE1FFE00C943C15DC012B01FA0170
:101E40009C91923008F439C1EB018881823008F40A
:101E500033C1943069F4843009F02FC111969C91FC
:101E600011978981981709F428C1A7E1B1E025C12C
:101E7000843009F421C18230A9F4923009F01DC1E7
:101E80009A01AD0188E0EA010990AE01E9010992E9
:101E90009E018150C1F7E201898111969C918923AD
:101EA000818308C1923009F407C112962D903C90AD
:101EB0001397EB018A819B811496AD90BD90CD90D4
:101EC000DC901797EC80FD800E811F819101281B0B
:101ED000390BB90137FF04C066277727621B730BE4
:101EE000603271050CF061C0121613066CF53701F3
:101EF0004801062E04C096948794779467940A94B8
:101F0000D2F721E030E040E050E004C0220F331F60
:101F1000441F551F6A95D2F7215030404040504031
:101F20002E213F2140235123211531054105510523
:101F300021F021E030E040E050E079018A01E6281C
:101F4000F728082919293CC0232BD1F1260E371E6A
:101F500035014601062E04C09694879477946794C1
:101F60000A94D2F721E030E040E050E004C0220FB4
:101F7000331F441F551F6A95D2F72150304040400F
:101F800050402A213B214C215D212115310541057D
:101F9000510521F021E030E040E050E059016A01B4
:101FA000A628B728C828D9280BC0821593052CF07D
:101FB0001C01AA24BB24650103C0EE24FF24870171
:101FC00011969C91D20111968C91981709F445C0F5
:101FD000992339F0A80197012A193B094C095D0999
:101FE00006C0A60195012E193F09400B510B57FD64
:101FF00008C011823382228224833583468357832B
:102000001DC081E081833382228288279927DC01E9
:10201000821B930BA40BB50B84839583A683B78394
:102020000DC0220F331F441F551F24833583468361
:1020300057838281938101979383828324813581A1
:1020400046815781DA01C9010197A109B1098F5F62
:102050009F4FAF4FBF4328F30BC09183338222823F
:10206000EA0CFB1C0C1D1D1DE482F5820683178300
:1020700083E08083248135814681578157FF1AC0D0
:10208000C901AA2797FDA095BA2F81709070A07002
:10209000B0705695479537952795822B932BA42B97
:1020A000B52B84839583A683B78382819381019620
:1020B00093838283DF0101C0D201CD01CDB7DEB7AA
:1020C000E2E10C945815A0E2B0E0E9E6F0E10C94EE
:1020D000481569837A838B839C832D833E834F834A
:1020E0005887E9E0EE2EF12CEC0EFD1ECE01019694
:1020F000B7010E94DC138E010F5E1F4FCE010596C3
:10210000B8010E94DC138A8991E089278A8BC70174
:10211000B801AE01475E5F4F0E94170F0E94071380
:10212000A096E6E00C946415A0E2B0E0EAE9F0E1E4
:102130000C94481569837A838B839C832D833E831B
:102140004F835887F9E0EF2EF12CEC0EFD1ECE01E7
:102150000196B7010E94DC138E010F5E1F4FCE0166
:102160000596B8010E94DC13C701B801AE01475EB5
:102170005F4F0E94170F0E940713A096E6E00C9491
:102180006415A0E2B0E0E7ECF0E10C943C15698343
:102190007A838B839C832D833E834F835887CE0124
:1021A0000196BE01675F7F4F0E94DC13CE0105964A
:1021B000BE016F5E7F4F0E94DC139985923088F0DC
:1021C00089898230C8F0943019F4823051F404C007
:1021D000843029F4923081F487E191E0C6C09230D6
:1021E00049F420E09A858A89981321E02A87CE0154
:1021F0000996BBC0823049F420E09A858A899813F9
:1022000021E02A8BCE014196B0C02D843E844F84BC
:1022100058886D887E888F88988CEE24FF248701EB
:10222000AA24BB24650140E050E060E070E0E0E0FB
:10223000F0E0C10181709070892BE9F0E60CF71C89
:10224000081D191D9A01AB012A0D3B1D4C1D5D1D7A
:1022500080E090E0A0E0B0E0E614F704080519057E
:1022600020F481E090E0A0E0B0E0BA01A901480FBD
:10227000591F6A1F7B1FAA0CBB1CCC1CDD1C97FEC0
:1022800008C081E090E0A0E0B0E0A82AB92ACA2AFC
:10229000DB2A3196E032F10549F0660C771C881C88
:1022A000991C5694479437942794C3CFFA85EA89AA
:1022B0002B893C898B859C85280F391F2E5F3F4FCA
:1022C00017C0CA0181709070892B61F0169507952F
:1022D000F794E79480E090E0A0E0B0E8E82AF92ADB
:1022E0000A2B1B2B76956795579547952F5F3F4F88
:1022F00077FDE7CF0CC0440F551F661F771F17FDF2
:102300004160EE0CFF1C001F111F21503040403077
:1023100090E0590790E0690790E4790760F32B8F0C
:102320003C8FDB01CA018F779070A070B070803451
:102330009105A105B10561F447FD0AC0E114F1045E
:102340000105110529F0405C5F4F6F4F7F4F4078CA
:102350001A8EFE1711F081E08A8F4D8F5E8F6F8F7E
:1023600078A383E0898FCE0149960E940713A09637
:10237000E2E10C945815A8E1B0E0E1ECF1E10C9435
:10238000481569837A838B839C832D833E834F8397
:10239000588789E0E82EF12CEC0EFD1ECE01019647
:1023A000B7010E94DC138E010F5E1F4FCE01059610
:1023B000B8010E94DC138985823040F0898982301F
:1023C00028F0C701B8010E94541401C08FEF68962D
:1023D000E6E00C946415ACE0B0E0E1EFF1E10C94C0
:1023E0004C1569837A838B839C83CE010196BE0151
:1023F0006B5F7F4F0E94DC138D81823061F18230F0
:1024000050F1843021F48E81882351F12EC02F8128
:10241000388537FD20C06E812F3131051CF06623D1
:10242000F9F023C08EE190E0821B930B29853A8559
:102430004B855C8504C056954795379527958A95B9
:10244000D2F76623B1F050954095309521953F4FD6
:102450004F4F5F4F0EC020E030E040E050E009C039
:102460002FEF3FEF4FEF5FE704C020E030E040E0A8
:1024700050E8B901CA012C96E2E00C946815A8E076
:10248000B0E0E5E4F2E10C9444157B018C016115A8
:1024900071058105910519F482E0898360C083E0AC
:1024A00089838EE1C82ED12CDC82CB82ED82FE8224
:1024B0000F831887C801B7010E94B812FC01319739
:1024C000F7FF3BC0222733272E1B3F0B5701680124
:1024D000022E04C0D694C794B794A7940A94D2F756
:1024E00040E050E060E070E081E090E0A0E0B0E02B
:1024F00004C0880F991FAA1FBB1F2A95D2F7019706
:10250000A109B1098E219F21A023B1230097A10524
:10251000B10521F041E050E060E070E04A295B291C
:102520006C297D294D835E836F8378878EE190E0EF
:102530008E1B9F0B9C838B8312C0309781F00E2ED5
:1025400004C0EE0CFF1C001F111F0A94D2F7ED828D
:10255000FE820F831887CE1ADF0ADC82CB821A82B2
:10256000CE0101960E9407132896EAE00C946015AC
:10257000EF92FF920F931F937B018C0180E0E8168E
:1025800080E0F80681E0080780E0180788F48FEF04
:10259000E816F1040105110531F028F088E090E01B
:1025A000A0E0B0E017C080E090E0A0E0B0E012C092
:1025B00080E0E81680E0F80680E0080781E0180770
:1025C00028F088E190E0A0E0B0E004C080E190E075
:1025D000A0E0B0E020E230E040E050E0281B390B02
:1025E0004A0B5B0B04C016950795F794E7948A9500
:1025F000D2F7F701E15EFE4F8081281B31094109C6
:102600005109C9011F910F91FF90EF900895DF923A
:10261000EF92FF920F931F93FC01E480F5800681F7
:102620001781D1808081823048F480E090E0A0E181
:10263000B0E0E82AF92A0A2B1B2BA5C0843009F444
:102640009FC0823021F4EE24FF24870105C0E114ED
:10265000F1040105110519F4E0E0F0E096C0628193
:1026600073819FEF623879070CF05BC022E83FEF7F
:10267000261B370B2A3131052CF020E030E040E0FA
:1026800050E02AC0B801A701022E04C076956795D4
:10269000579547950A94D2F781E090E0A0E0B0E02A
:1026A00004C0880F991FAA1FBB1F2A95D2F7019754
:1026B000A109B1098E219F21A023B1230097A10573
:1026C000B10521F081E090E0A0E0B0E09A01AB011B
:1026D000282B392B4A2B5B2BDA01C9018F7790709D
:1026E000A070B07080349105A105B10539F427FFC1
:1026F00009C0205C3F4F4F4F5F4F04C0215C3F4FEC
:102700004F4F5F4FE0E0F0E02030A0E03A07A0E05C
:102710004A07A0E45A0710F0E1E0F0E079018A01ED
:1027200027C06038710564F5FB01E158FF4FD801FF
:10273000C7018F779070A070B07080349105A105AB
:10274000B10539F4E7FE0DC080E490E0A0E0B0E010
:1027500004C08FE390E0A0E0B0E0E80EF91E0A1F8D
:102760001B1F17FF05C016950795F794E794319640
:1027700087E016950795F794E7948A95D1F705C0F9
:10278000EE24FF248701EFEFF0E06E2F67956627B8
:102790006795902F9F77D794DD24D7948E2F8695B9
:1027A000492F462B582F5D29B701CA011F910F9160
:1027B000FF90EF90DF900895FC01DB014081518193
:1027C0002281622F6F7770E0221F2227221F9381C0
:1027D000892F880F822B282F30E0991F9927991F66
:1027E00011969C93119721153105A9F541155105B5
:1027F0006105710511F482E037C082E89FEF1396FE
:102800009C938E9312979A01AB0167E0220F331FBE
:10281000441F551F6A95D1F783E08C930DC0220F9A
:10282000331F441F551F12968D919C91139701974A
:1028300013969C938E931297203080E0380780E0A7
:10284000480780E4580758F314962D933D934D9311
:102850005C93179708952F3F310579F44115510581
:102860006105710519F484E08C93089564FF03C039
:1028700081E08C9312C01C9210C02F5730401396E9
:102880003C932E93129783E08C9387E0440F551F5F
:10289000661F771F8A95D1F7706414964D935D93E8
:1028A0006D937C93179708951F93DC01FB019C9116
:1028B000923008F447C08081823008F443C09430DD
:1028C00051F411961C91843099F58181682F70E044
:1028D000611B71093FC0843021F0923031F48230A5
:1028E000B9F18181882389F12DC011961C9111972E
:1028F0008230F1F081811817D9F412962D913C9114
:102900001397828193818217930794F028173907D0
:10291000BCF014968D919D910D90BC91A02D2481B9
:10292000358146815781281739074A075B0718F414
:10293000112341F00AC082179307A407B50740F49A
:10294000112319F061E070E005C06FEF7FEF02C066
:1029500060E070E0CB011F910895629FD001739FEA
:10296000F001829FE00DF11D649FE00DF11D929F2B
:10297000F00D839FF00D749FF00D659FF00D99276A
:10298000729FB00DE11DF91F639FB00DE11DF91F8E
:10299000BD01CF0111240895991B79E004C0991F4E
:1029A000961708F0961B881F7A95C9F780950895A9
:1029B000AA1BBB1B51E107C0AA1FBB1FA617B70765
:1029C00010F0A61BB70B881F991F5A95A9F7809581
:1029D0009095BC01CD01089597FB092E07260AD0DA
:1029E00077FD04D0E5DF06D000201AF470956195DC
:1029F0007F4F0895F6F7909581959F4F0895A1E236
:102A00001A2EAA1BBB1BFD010DC0AA1FBB1FEE1F68
:102A1000FF1FA217B307E407F50720F0A21BB30BB3
:102A2000E40BF50B661F771F881F991F1A9469F72F
:102A300060957095809590959B01AC01BD01CF018B
:102A4000089597FB092E05260ED057FD04D0D7DF39
:102A50000AD0001C38F450954095309521953F4F91
:102A60004F4F5F4F0895F6F790958095709561955B
:102A70007F4F8F4F9F4F08952F923F924F925F92BB
:102A80006F927F928F929F92AF92BF92CF92DF927E
:102A9000EF92FF920F931F93CF93DF93CDB7DEB7E3
:102AA000CA1BDB0B0FB6F894DEBF0FBECDBF099477
:102AB0002A88398848885F846E847D848C849B84CE
:102AC000AA84B984C884DF80EE80FD800C811B81DC
:102AD000AA81B981CE0FD11D0FB6F894DEBF0FBE0B
:102AE000CDBFED010895FB019F01E8944230C4F091
:102AF0004532B4F44A3029F497FB1EF49095819541
:102B00009F4F642F77270E94D814805D8A330CF082
:102B1000895D8193CB010097A1F716F45DE2519393
:102B20001082C9010C949415DC01FC01672F71918E
:102B30007723E1F7329704C07C916D9370836291A3
:0C2B4000AE17BF07C8F30895F894FFCF4C
:102B4C00476573746172742057696C64205468759E
:102B5C006D70657200DF0D000000000000000000C9
:102B6C000102020303030304040404040404040523
:102B7C0005050505050505050505050505050506F8
:102B8C0006060606060606060606060606060606D9
:102B9C0006060606060606060606060606060607C8
:102BAC0007070707070707070707070707070707A9
:102BBC000707070707070707070707070707070799
:102BCC000707070707070707070707070707070789
:102BDC000707070707070707070707070707070878
:102BEC000808080808080808080808080808080859
:102BFC000808080808080808080808080808080849
:102C0C000808080808080808080808080808080838
:102C1C000808080808080808080808080808080828
:102C2C000808080808080808080808080808080818
:102C3C000808080808080808080808080808080808
:102C4C0008080808080808080808080808080808F8
:102C5C0008080808080808080808080808080800F0
:00000001FF
