:100000000C943E000C945B000C945B000C94B408C0
:100010000C94F9080C943E090C946B0A0C94940A05
:100020000C945B000C945B000C945B000C945B00E4
:100030000C945B000C94E60A0C945B000C945B003F
:100040000C945B000C945B000C945B000C945B00C4
:100050000C9484120C945B000C945B000C945B0079
:100060000C945B000C945B000C94CC0F0C945B0024
:100070000C9494120C945B000C945B0011241FBE32
:10008000CFEFD0E1DEBFCDBF12E0A0E0B1E0E4EA07
:10009000F4E302C005900D92A03BB107D9F713E03D
:1000A000A0EBB2E001C01D92AC37B107E1F70E94AE
:1000B000EF040C94501A0C940000DF93CF93CDB74B
:1000C000DEB781E00E9447128FEF0E94471282E163
:1000D0000E9447128EEF0E94471280912B030E94CC
:1000E0004712809139030E94471280913A030E947F
:1000F000471280913B030E944712809131030E9476
:100100004712809133030E944712809134030E946A
:100110004712809135030E944712809136030E9456
:100120004712809137030E944712809138030E9442
:1001300047120E947D060E9447120E9487060E9475
:10014000471284E00E944712CF91DF910895DF9318
:10015000CF93CDB7DEB781E00E9447128FEF0E94A8
:10016000471284E10E9447128FEF0E94471280914C
:100170002B030E94471280912C030E94471280910A
:100180002D030E94471280912E030E9447128091F6
:100190002F030E944712809130030E9447128091E2
:1001A00033030E944712809134030E9447128091CA
:1001B00035030E944712809136030E9447128091B6
:1001C00037030E944712809138030E9447128091A2
:1001D00027030E9447120E94B7060E9447120E94FE
:1001E000AD060E94471284E00E944712CF91DF9132
:1001F0000895DF93CF9300D00F92CDB7DEB71B8267
:100200001092B10278941A82198229C099818AE0E9
:1002100060E04EE1292F0E94040F8EE190E00E94E1
:10022000B50B8AE060E00E94A40E29E233E08AE088
:1002300067E1A90121E00E94C40D80912903282FC4
:1002400030E089819A8101962817390719F08B814E
:100250008F5F8B8389819A8101969A8389838981B3
:100260009A818A30910594F281E00E9447128FEFC3
:100270000E94471287E00E94471288EC0E944712B2
:100280008B810E9447128091B1020E94471284E044
:100290000E9447120F900F900F90CF91DF91089519
:1002A000DF93CF9300D0CDB7DEB778941A8219824E
:1002B0001BC081E00E9447128FEF0E94471286E028
:1002C0000E94471289EC0E9447128AE00E9447125E
:1002D00084E00E9447128EE690E00E94B50B89816F
:1002E0009A8101969A83898389819A818A309105BE
:1002F00004F30F900F90CF91DF9108950F93DF9348
:10030000CF9300D000D00F92CDB7DEB789836A8338
:100310004B83109224038981282F30E03D832C8366
:100320008C819D818230910579F12C813D81233032
:10033000310554F48C819D810097B1F02C813D8171
:1003400021303105C9F03BC08C819D8184309105FD
:1003500059F12C813D8124303105F4F08C819D814F
:100360008630910549F12BC08AE060E041E02A81A6
:100370000B810E943C0F23C08AE060E042E02A81AA
:100380000B810E943C0F1BC08AE060E043E02A81A1
:100390000B810E943C0F13C08AE060E044E02A8198
:1003A0000B810E943C0F0BC08AE060E045E02A818F
:1003B0000B810E943C0F03C081E0809324030F90C7
:1003C0000F900F900F900F90CF91DF910F910895A4
:1003D0000F93DF93CF9300D000D00F92CDB7DEB74D
:1003E00089837B836A831092700310926F038091DC
:1003F000B002882309F0B2C181E08093B002898104
:10040000282F30E03D832C838C819D818E30910597
:1004100009F424C12C813D812F3031050CF048C0F6
:100420008C819D818430910509F4CDC02C813D8162
:1004300025303105F4F48C819D818130910509F4DA
:1004400095C02C813D812230310534F48C819D8111
:10045000009709F47CC07CC12C813D81223031059C
:1004600009F493C08C819D818330910509F49CC06F
:100470006FC12C813D812B30310509F4C2C08C81C4
:100480009D818C3091053CF42C813D812A303105D1
:1004900009F4A8C05DC18C819D818C30910509F45F
:1004A000BFC02C813D812D30310509F4C8C050C139
:1004B0008C819D81893C910509F403C12C813D818A
:1004C0002A3C3105FCF48C819D818436910509F428
:1004D000E3C02C813D81253631053CF48C819D8122
:1004E0008F30910509F4C9C033C12C813D81253677
:1004F000310509F4D9C08C819D81883C910509F4AE
:10050000DDC026C12C813D81223F310509F4FAC0AE
:100510008C819D81833F91056CF42C813D81203F2E
:10052000310509F4D1C08C819D81813F910509F489
:10053000DAC00EC12C813D812E3F310509F4F1C096
:100540008C819D818F3F910509F400C101C1EA8131
:10055000FB8120818A819B81FC01319690818AE018
:1005600060E041E0092F0E943C0FF2C0EA81FB816C
:1005700020818A819B81FC01319690818AE060E034
:1005800042E0092F0E943C0FE3C0EA81FB812081F9
:100590008A819B81FC01319690818AE060E043E092
:1005A000092F0E943C0FD4C0EA81FB8120818A81FF
:1005B0009B81FC01319690818AE060E044E0092F44
:1005C0000E943C0FC5C0EA81FB8120818A819B810A
:1005D000FC01319690818AE060E045E0092F0E949D
:1005E0003C0FB6C0EA81FB8120818A819B81FC019E
:1005F000319690818AE060E04AE0092F0E943C0F2A
:10060000A7C0EA81FB8120818A819B81FC01319610
:1006100090818AE060E04BE0092F0E943C0F98C077
:10062000EA81FB8120818A819B81FC013196908146
:100630008AE060E04CE0092F0E943C0F89C0EA810B
:10064000FB8120818A819B81FC01319690818AE027
:1006500060E04DE0092F0E943C0F7AC0EA81FB81E7
:1006600020818A819B81FC01319690818AE060E043
:100670004EE0092F0E943C0F6BC0EA81FB81208174
:100680008A819B81FC01319690818AE060E04FE095
:10069000092F0E943C0F5CC0EA81FB81808180931E
:1006A00028030E949C0554C0EA81FB8190818AE066
:1006B00060E04CE1292F0E94040F4AC00E94F9001B
:1006C00047C00E94500144C0EA81FB8120818A8199
:1006D0009B81FC01319690818AE060E041E2092F24
:1006E0000E943C0F35C0EA81FB8120818A819B8179
:1006F000FC01319690818AE060E042E2092F0E947D
:100700003C0F26C0EA81FB8120818A819B81FC010C
:10071000319690818AE060E043E2092F0E943C0F0D
:1007200017C00E945D00EA81FB8130818A819B8134
:10073000FC01319620818A819B81FC013296908157
:10074000832F622F492F0E947E0102C00E94A700C2
:100750001092B00210927203109271030F900F90DA
:100760000F900F900F90CF91DF910F910895DF932D
:10077000CF93CDB7DEB78091B002882371F4E9E260
:10078000F0E0808188234CF481E08093B0028AE01D
:1007900060E040E024E10E94460DCF91DF91089592
:1007A000DF93CF930F92CDB7DEB7898389818823FA
:1007B00039F489E293E064E10E947A0D1092B0026C
:1007C0000F90CF91DF910895DF93CF930F92CDB724
:1007D000DEB789838091B1028F5F8093B10280E0A0
:1007E00091E00E94121289810E9460111092B00261
:1007F0000F90CF91DF910895DF93CF93CDB7DEB700
:100800000E9427098170982F9170809127038E7F15
:10081000892B809327030E94100981708170982F83
:10082000990F809127038D7F892B809327030E9446
:10083000C60781708170982F990F990F80912703B7
:100840008B7F892B8093270381E090E00E94B50B7A
:100850000E94D80681708170982F990F990F990F77
:1008600080912703877F892B8093270381E090E085
:100870000E94B50B0E943D0881708170982F92955F
:10088000907F809127038F7E892B8093270381E0BF
:1008900090E00E94B50B0E944F0781708170982FE5
:1008A0009295990F907E809127038F7D892B80935D
:1008B0002703CF91DF9108950F93DF93CF93CDB7A7
:1008C000DEB7809171039091720323E0893E920715
:1008D00038F08AE060E041E020E000E00E943C0F58
:1008E000CF91DF910F9108950F93DF93CF93CDB701
:1008F000DEB7809173039091740327E0813D9207E6
:10090000A8F08AE060E042E020E500E00E943C0FB1
:100910001092740310927303809168038F7D80930B
:100920006803109225031092260355C08091270377
:100930008170882371F4809127038470882349F49F
:10094000809127038071882321F4809125038823D7
:10095000A1F08091680380628093680380912503F1
:10096000882339F08AE060E045E026E406E00E9452
:100970003C0F81E0809325032EC080912703827075
:10098000882371F4809127038870882349F480912B
:1009900027038072882321F4809126038823A1F005
:1009A0008091680380628093680380912603882386
:1009B00039F08AE060E044E026E406E00E943C0F63
:1009C00081E08093260307C08AE060E042E020E5F2
:1009D00000E00E943C0FCF91DF910F910895DF93CB
:1009E000CF93CDB7DEB7E2E2F0E01082E5E2F0E0CF
:1009F0008BE18083E8E2F0E08CEF8083EBE2F0E0D3
:100A000081E78083E1E2F0E01082E4E2F0E08BEB4A
:100A10008083E7E2F0E080EC8083EAE2F0E08AE7BE
:100A2000808360E875E280E090E00E94A11060E8B9
:100A300075E280E090E00E94F9100E94C60A8AE206
:100A40000E94170C0E9420060E94C106A3E7B0E096
:100A5000E3E7F0E0808180688C93A8E6B0E0E8E608
:100A6000F0E0808188608C93E9E6F0E080E28083AA
:100A7000EDE3F0E084E0808378940E94DA0A0E943B
:100A8000DA0584EF91E00E94B50B8AE20E9411061C
:100A90008BE191E00E941212789484EE93E00E9420
:100AA0005D0C80ED93E00E94410C87EB93E00E9487
:100AB000820A88EE91E00E94D012809168038860DB
:100AC00080936803809168038061809368038091BC
:100AD0006F039091700385369105C8F08091B00244
:100AE0008823A9F481E08093B0028AE060E00E944C
:100AF000A40E29E233E08AE060E0A90124E10E942B
:100B0000C40D1092B0021092700310926F030E94F5
:100B10008C0C0E94FC030E945C04809124038823B7
:100B2000B1F2809171039091720323E0883E9207A5
:100B300070F60E947404CBCFDF93CF9300D0CDB773
:100B4000DEB7ECE4F0E083E58083EEE4F0E0809152
:100B500028038083EDE4F0E080818823DCF7ECE477
:100B6000F0E01082A5E2B0E0E5E2F0E080818C9355
:100B7000A5E2B0E0E5E2F0E0808180648C931A8227
:100B8000198206C0000089819A8101969A8389831F
:100B900089819A8121E08C329207A4F3A5E2B0E02A
:100BA000E5E2F0E080818F7B8C930F900F90CF91E6
:100BB000DF910895DF93CF9300D0CDB7DEB71A82CF
:100BC0001BC08091280381608093280319820EC086
:100BD00084E690E00E94B50B0E949C05809128035A
:100BE000880F8093280389818F5F8983898186306C
:100BF00078F38A818F5F8A838A81833010F38FE351
:100C0000809328030E949C0584EF91E00E94B50B1D
:100C1000109228030E949C050F900F90CF91DF91B6
:100C20000895DF93CF930F92CDB7DEB78983898183
:100C3000809328030E949C050F90CF91DF91089527
:100C4000DF93CF93CDB7DEB7ECE7F0E080E28083AF
:100C5000EAE7F0E084EE8083EBE7F0E01082CF91EA
:100C6000DF910895DF93CF9300D00F92CDB7DEB719
:100C70008B83E8E7F0E01082E9E7F0E01082ACE770
:100C8000B0E0ECE7F0E0808180728C93ACE7B0E0FC
:100C9000ECE7F0E090818B81892B8C931A8219828A
:100CA00006C0000089819A8101969A83898389818F
:100CB0009A8121E08C329207A4F3AAE7B0E0EAE738
:100CC000F0E0808180648C93EAE7F0E08081882FF7
:100CD00090E0807190700097B9F3AAE7B0E0EAE77E
:100CE000F0E0808180618C93E9E7F0E080810F90F3
:100CF0000F900F90CF91DF910895DF93CF93CDB7F1
:100D0000DEB780E00E943206CF91DF910895DF9335
:100D1000CF93CDB7DEB783E00E943206882F90E0F4
:100D2000AA2797FDA095BA2FBC01CD010E94FB1602
:100D3000DC01CB01BC01CD012DEC3CEC4CEC5FE3C4
:100D40000E94D115DC01CB01BC01CD010E94FB1337
:100D5000DC01CB01CF91DF910895DF93CF93CDB725
:100D6000DEB781E00E943206CF91DF910895DF93D4
:100D7000CF93CDB7DEB782E00E943206CF91DF91EC
:100D80000895DF93CF93CDB7DEB7E4E4F0E082E5DA
:100D90008083E5E4F0E082E08083E7E4F0E082E253
:100DA0008083E8E4F0E082E28083CF91DF910895D0
:100DB000DF93CF9300D000D00F92CDB7DEB7109263
:100DC00052031092510310925303A8E2B0E0E8E2FC
:100DD000F0E080818F778C93198219C0E4E4F0E011
:100DE00082E18083E4E4F0E082E4808384E10E9495
:100DF0009D0BE4E4F0E082E08083E4E4F0E082E450
:100E0000808384E10E949D0B89818F5F8983898122
:100E1000843120F380915303843088F0809128033B
:100E20008860809328030E949C05A8E2B0E0E8E275
:100E3000F0E0808180688C9381E08D8327C0809171
:100E40005103909152039C838B831A828B819C81E6
:100E50008031910510F091E09A838B819C810196FD
:100E600090935203809351038A81882399F2809151
:100E70002803877F809328030E949C05A8E2B0E0A6
:100E8000E8E2F0E0808180688C931D828D810F9074
:100E90000F900F900F900F90CF91DF910895DF93F7
:100EA000CF9300D000D00F92CDB7DEB7109252038F
:100EB0001092510310925303A8E2B0E0E8E2F0E090
:100EC00080818F7B8C93198219C0E4E4F0E082E189
:100ED0008083E4E4F0E082E4808384E10E949D0B5F
:100EE000E4E4F0E082E08083E4E4F0E082E4808304
:100EF00084E10E949D0B89818F5F89838981843180
:100F000020F380915303843088F08091280384601B
:100F1000809328030E949C05A8E2B0E0E8E2F0E09C
:100F2000808180648C9381E08D8327C08091510300
:100F3000909152039C838B831A828B819C81803198
:100F4000910510F091E09A838B819C81019690939A
:100F50005203809351038A81882399F28091280358
:100F60008B7F809328030E949C05A8E2B0E0E8E212
:100F7000F0E0808180648C931D828D810F900F90B2
:100F80000F900F900F90CF91DF910895DF93CF9343
:100F900000D000D00F92CDB7DEB71092520310925E
:100FA000510310925303ABE2B0E0EBE2F0E080813A
:100FB0008F7B8C93198219C0E4E4F0E082E1808396
:100FC000E4E4F0E082E4808384E10E949D0BE4E4A9
:100FD000F0E082E08083E4E4F0E082E4808384E176
:100FE0000E949D0B89818F5F89838981843120F3E1
:100FF00080915303853088F080912803826080932C
:1010000028030E949C05ABE2B0E0EBE2F0E08081B7
:1010100080648C9381E08D8327C0809151039091EF
:1010200052039C838B831A828B819C818031910532
:1010300010F091E09A838B819C81019690935203EA
:10104000809351038A81882399F2809128038D7FB0
:10105000809328030E949C05ABE2B0E0EBE2F0E055
:10106000808180648C931D828D810F900F900F90F2
:101070000F900F90CF91DF910895DF93CF9300D021
:1010800000D00F92CDB7DEB71092520310925103E9
:1010900010925303ABE2B0E0EBE2F0E080818F7D91
:1010A0008C93198219C0E4E4F0E082E18083E4E4E7
:1010B000F0E082E4808384E10E949D0BE4E4F0E0B0
:1010C00082E08083E4E4F0E082E4808384E10E94B3
:1010D0009D0B89818F5F89838981843120F3809181
:1010E0005303853088F08091280381608093280322
:1010F0000E949C05ABE2B0E0EBE2F0E08081806210
:101100008C9381E08D8327C080915103909152038D
:101110009C838B831A828B819C818031910510F096
:1011200091E09A838B819C810196909352038093E6
:1011300051038A81882399F2809128038E7F8093BE
:1011400028030E949C05ABE2B0E0EBE2F0E0808176
:1011500080628C931D828D810F900F900F900F9065
:101160000F90CF91DF9108951F920F920FB60F92BB
:1011700011248F93DF93CF93CDB7DEB780915303C4
:101180008F5F80935303CF91DF918F910F900FBEAC
:101190000F901F901895DF93CF93CDB7DEB7A8E6D9
:1011A000B0E0E8E6F0E080818E608C93ABE3B0E0E5
:1011B000EBE3F0E080818C93ABE6B0E0EBE6F0E0AF
:1011C00080818C93ACE6B0E0ECE6F0E08081836057
:1011D0008C93ADE6B0E0EDE6F0E080818C93A3E780
:1011E000B0E0E3E7F0E0808180688C93CF91DF91FD
:1011F00008951F920F920FB60F9211248F93DF93D1
:10120000CF93CDB7DEB7809153038F5F80935303A5
:10121000CF91DF918F910F900FBE0F901F90189577
:10122000DF93CF930F92CDB7DEB7E3E2F0E080819A
:10123000882F90E082709070009719F481E0898384
:1012400001C0198289810F90CF91DF910895DF93BA
:10125000CF930F92CDB7DEB7E3E2F0E08081882F25
:1012600090E081709070009719F481E0898301C04B
:10127000198289810F90CF91DF91089578941F9200
:101280000F920FB60F9211242F933F934F935F93BA
:101290006F937F938F939F93AF93BF93EF93FF933E
:1012A000DF93CF93CDB7DEB76297F894DEBF789423
:1012B000CDBFE3E2F0E08081882F90E081709070F4
:1012C000009709F03EC09091B20281E08927882FF3
:1012D00090E08A8B80916803882F90E082709070F4
:1012E000198A188A009721F421E030E0398B288B85
:1012F00080916B0390916C031F861E86853191054A
:1013000020F081E090E09F878E87888999892E85DB
:101310003F85822B932B3A898323882309F446C087
:1013200010926C0310926B0380916803826080932B
:10133000680381E08093B20280E391E00E94121280
:1013400035C08091B202282F30E03D872C878091F4
:101350006803882F90E0827090701B86009711F4CC
:1013600031E03B8780916B0390916C031A86853145
:10137000910510F081E08A878B859A85892B882FCB
:1013800090E02C853D8582239323009779F010927D
:101390006C0310926B0380916803826080936803F2
:1013A0001092B2028BE491E00E941212E3E2F0E0AC
:1013B0008081882F90E082709070009709F03EC085
:1013C0009091B30281E08927882F90E089878091EE
:1013D0006803882F90E08470907018861F820097B1
:1013E00021F481E090E098878F8380916D03909144
:1013F0006E031E821D828531910520F021E030E0D0
:101400003E832D838F8198852D813E81822B932B66
:1014100039858323882309F446C010926E03109205
:101420006D038091680384608093680381E08093FA
:10143000B30288E691E00E94121235C08091B30297
:10144000282F30E03C832B8380916803882F90E025
:10145000847090701A82009711F431E03A83809181
:101460006D0390916E0319828531910510F081E032
:1014700089838A819981892B882F90E02B813C81F7
:1014800082239323009779F010926E0310926D03DC
:10149000809168038460809368031092B30283E8AC
:1014A00091E00E9412126296F894DEBF7894CDBF4C
:1014B000CF91DF91FF91EF91BF91AF919F918F916C
:1014C0007F916F915F914F913F912F910F900FBE40
:1014D0000F901F9018951F920F920FB60F92112424
:1014E000DF93CF93CDB7DEB7CF91DF910F900FBED3
:1014F0000F901F901895DF93CF93CDB7DEB7CF91A4
:10150000DF910895DF93CF9300D0CDB7DEB79A83F4
:10151000898389819A819093A1018093A0010F9082
:101520000F90CF91DF9108951F920F920FB60F92F7
:1015300011242F933F934F935F936F937F938F93D8
:101540009F93AF93BF93EF93FF93DF93CF93CDB769
:10155000DEB7E9E2F0E0808188232CF4E091A0017D
:10156000F091A1010995CF91DF91FF91EF91BF918A
:10157000AF919F918F917F916F915F914F913F912B
:101580002F910F900FBE0F901F901895DF93CF9360
:10159000CDB7DEB7E0E8F0E01082E1E8F0E08AE005
:1015A0008083E8E8F0E089EF90E091838083CF9139
:1015B000DF910895DF93CF93CDB7DEB7EFE6F0E08C
:1015C00082E080837894CF91DF9108951F920F92EB
:1015D0000FB60F9211248F939F93DF93CF9300D078
:1015E000CDB7DEB78091790390917A0301969093FD
:1015F0007A038093790380917B038A8319828A819D
:101600008A3010F081E089838A818F5F80937B0329
:101610008981882309F486C080916803882F90E02F
:1016200081709070882349F08091690390916A03DA
:10163000019690936A038093690380916803882FD1
:1016400090E082709070009749F080916B039091C8
:101650006C03019690936C0380936B0380916803F5
:10166000882F90E084709070009749F080916D030E
:1016700090916E03019690936E0380936D03809119
:101680006803882F90E088709070009749F08091EF
:101690006F039091700301969093700380936F0392
:1016A00080916803882F90E080719070009749F0D6
:1016B00080917103909172030196909372038093CD
:1016C000710380916803882F90E08072907000977A
:1016D00049F0809173039091740301969093740381
:1016E0008093730380916803882F90E080749070DA
:1016F000009749F08091750390917603019690933D
:101700007603809375038091680388234CF480915D
:1017100077039091780301969093780380937703F1
:1017200010927B030F900F90CF91DF919F918F913B
:101730000F900FBE0F901F901895DF93CF930F92CD
:10174000CDB7DEB7898310927A031092790389812D
:10175000282F30E08091790390917A0382179307C4
:10176000B0F30F90CF91DF910895DF93CF9300D026
:101770000F92CDB7DEB79A83898303C08AE00E94B7
:101780009D0B1B8289819A81009711F081E08B83E8
:1017900089819A8101979A8389838B81882371F744
:1017A0000F900F900F90CF91DF910895DF93CF931B
:1017B000CDB7DEB7E2E2F0E01082E5E2F0E08BE1E7
:1017C0008083E8E2F0E08CEF8083EBE2F0E081E7F9
:1017D0008083E1E2F0E01082E4E2F0E08BEB8083D2
:1017E000E7E2F0E080EC8083EAE2F0E08AE78083E1
:1017F00060E875E280E090E00E94A11060E875E288
:1018000080E090E00E94F910ABE2B0E0EBE2F0E0A3
:10181000808180618C930E94C60A0E9420060E94EB
:10182000CB080E94DA0A7894CF91DF910895DF9374
:10183000CF930F92CDB7DEB78983F894E8EBF0E051
:1018400089818083E9EBF0E01082EBEBF0E08FEF31
:101850008083ECEBF0E084E080838091B4028160CF
:101860008093B40278940F90CF91DF910895DF9325
:10187000CF930F92CDB7DEB789830F90CF91DF91D1
:101880000895DF93CF9300D0CDB7DEB79A838983D5
:1018900089819A819093A3018093A2010F900F9068
:1018A000CF91DF910895DF93CF930F92CDB7DEB73D
:1018B00089830F90CF91DF910895DF93CF9300D06C
:1018C000CDB7DEB79A83898389819A819093A501E8
:1018D0008093A4010F900F90CF91DF910895DF9333
:1018E000CF9300D00F92CDB7DEB786E98983898187
:1018F0008A838A818B838B81882311F081E08B839B
:101900009B818A8181508983992389F70F900F9059
:101910000F90CF91DF910895DF93CF930F92CDB7C2
:10192000DEB7ECEBF0E08081882F90E08170907062
:10193000009709F078C08091B4028170882309F47F
:1019400057C08091BB02882309F46DC08091BB020F
:101950008130B9F40E946F0C82E08093FD02809187
:10196000B6028093BD028091B7028093BE021092AE
:10197000B402ECEBF0E085EA808382E08093BB0266
:1019800052C08091BB028230D9F40E946F0C8091CA
:10199000B8028F5F8093FD028091B60281608093D0
:1019A000B6028091B60281608093BD021092B402AB
:1019B000ECEBF0E085EA808383E08093BB0233C0E8
:1019C0008091BB02833079F51092BB028091B902FD
:1019D0009091BA022FEF8F3F920729F1E091A20177
:1019E000F091A3018091B9029091BA0209951BC0B0
:1019F0000E94B20D898389818823A9F01092BB02CD
:101A00008091B40281608093B4021092B602109269
:101A1000BA021092B9021092B802E091A401F091BA
:101A2000A501898109950F90CF91DF910895DF93EA
:101A3000CF9300D00F92CDB7DEB789836A834B83F3
:101A400002C00E948C0CECEBF0E08081882F90E0CB
:101A5000817090708823A9F78091BB02882389F751
:101A600082E08093BB0289818093B6028A81882FAD
:101A700090E09093BA028093B9028B818093B80270
:101A80000F900F900F90CF91DF910895DF93CF9338
:101A900000D000D0CDB7DEB789836A834B832C8317
:101AA00002C00E948C0CECEBF0E08081882F90E06B
:101AB000817090708823A9F78091BB02882389F7F1
:101AC00081E08093BB028A81882F90E09093BA02D4
:101AD0008093B90289818093B6028B818093B7028B
:101AE0008C818093B8020F900F900F900F90CF9140
:101AF000DF910895DF93CF9300D000D0CDB7DEB74C
:101B00009B838A836C83ECEBF0E08081882F90E0EC
:101B1000817090708823B9F719828091B402817026
:101B20008823C9F014C08981282F30E08A819B81E5
:101B3000DC01A20FB31F8981882F90E00196FC0180
:101B4000E353FD4F80818C9389818F5F89839981D5
:101B50008C81981740F30F900F900F900F90CF91BA
:101B6000DF910895DF93CF93CDB7DEB7ECEBF0E0D4
:101B70008081882F90E0817090708823B9F78091E0
:101B8000B502CF91DF910895DF93CF9300D000D0BD
:101B90000F92CDB7DEB789836A835C834B832D8335
:101BA00002C00E948C0CECEBF0E08081882F90E06A
:101BB000817090708823A9F78091BB02882389F7F0
:101BC00081E08093BB0289818093B6028FEF9FEF03
:101BD0009093BA028093B9028A818093B7028D8173
:101BE0008093B80202C00E948C0CECEBF0E0808184
:101BF000882F90E0817090708823A9F78091BB02B4
:101C0000882389F78091B4028170882341F08D8107
:101C1000282F2F5F8B819C81622F0E947A0D0F905D
:101C20000F900F900F900F90CF91DF910895DF9359
:101C3000CF9300D000D0CDB7DEB789837B836A8392
:101C40004C8302C00E948C0CECEBF0E08081882F6A
:101C500090E0817090708823A9F78091BB0288235F
:101C600089F70E946F0C82E08093BB028981809388
:101C7000B6028FEF9FEF9093BA028093B9028C81E6
:101C80008093B80202C00E948C0CECEBF0E08081E3
:101C9000882F90E0817090708823A9F78091BB0213
:101CA000882389F78091B4028170882341F08C8168
:101CB000282F2F5F8A819B81622F0E947A0D0F90BF
:101CC0000F900F900F90CF91DF910895DF93CF93F6
:101CD00000D0CDB7DEB7898302C00E948C0CECEB3C
:101CE000F0E08081882F90E0817090708823A9F7C0
:101CF0008091BB02882389F70E946F0C82E0809359
:101D0000BB0289818093B6028FEF9FEF9093BA0256
:101D10008093B90281E08093B80202C00E948C0CCB
:101D20008091BB028823D1F78091B402817088230F
:101D300021F08091CE028A8301C01A828A810F909D
:101D40000F90CF91DF910895DF93CF9300D0CDB75F
:101D5000DEB789836A8302C00E948C0CECEBF0E052
:101D60008081882F90E0817090708823A9F78091FE
:101D7000BB02882389F70E946F0C82E08093FD02EA
:101D800089818093BD028A818093BE021092B40241
:101D9000ECEBF0E085EA80830F900F90CF91DF911C
:101DA0000895DF93CF9300D00F92CDB7DEB789832C
:101DB0006A834B8302C00E948C0CECEBF0E08081C4
:101DC000882F90E0817090708823A9F78091BB02E2
:101DD000882389F70E946F0C83E08093FD0289813C
:101DE0008093BD028A818093BE028B818093BF0263
:101DF0001092B402ECEBF0E085EA80830F900F9034
:101E00000F90CF91DF910895DF93CF9300D000D052
:101E1000CDB7DEB789836A834B832C8302C00E94CF
:101E20008C0CECEBF0E08081882F90E0817090705A
:101E30008823A9F78091BB02882389F70E946F0C41
:101E400084E08093FD0289818093BD028A81809322
:101E5000BE028B818093BF028C818093C00210925E
:101E6000B402ECEBF0E085EA80830F900F900F90C6
:101E70000F90CF91DF9108950F93DF93CF9300D010
:101E800000D00F92CDB7DEB789836A834B832C8352
:101E90000D8302C00E948C0CECEBF0E08081882F57
:101EA00090E0817090708823A9F78091BB0288230D
:101EB00089F70E946F0C85E08093FD0289818093F1
:101EC000BD028A818093BE028B818093BF028C8188
:101ED0008093C0028D818093C1021092B402ECEB1A
:101EE000F0E085EA80830F900F900F900F900F9095
:101EF000CF91DF910F910895DF93CF9300D000D061
:101F00000F92CDB7DEB78A837C836B834D8302C08B
:101F10000E948C0CECEBF0E08081882F90E08170C7
:101F200090708823A9F78091BB02882389F70E94CB
:101F30006F0C8D818F5F8D838D818093FD028A81EF
:101F40008093BD02198216C08981882F90E0AC0170
:101F50004F5F5F4F8981282F30E08B819C81FC018E
:101F6000E20FF31F8081FA01E354FD4F80838981E2
:101F70008F5F898399818D81981730F31092B40215
:101F8000ECEBF0E085EA80830F900F900F900F90BC
:101F90000F90CF91DF9108951F920F920FB60F927D
:101FA00011242F933F938F939F93AF93BF93EF93FE
:101FB000FF93DF93CF9300D0CDB7DEB7E9EBF0E02E
:101FC0008081282F30E03A83298389819A81883261
:101FD0009105A9F129813A812932310584F4898159
:101FE0009A818031910549F129813A812831310561
:101FF00031F189819A8188309105F9F088C0298171
:102000003A812034310509F44DC089819A818134A7
:1020100091053CF429813A812833310509F46DC0DA
:1020200076C089819A818035910569F129813A814B
:102030002835310509F44CC06AC01092BC02909159
:10204000BC028091FD029817A0F4ABEBB0E02091A8
:10205000BC02822F90E0FC01E354FD4F80818C9301
:10206000822F8F5F8093BC02ECEBF0E085E88083E9
:1020700057C08091B40281608093B402ECEBF0E031
:1020800084E980834DC03091BC02832F90E0EBEB5C
:10209000F0E02081FC01E353FD4F2083832F8F5F0D
:1020A0008093BC028091BC02282F30E08091FD0219
:1020B000882F90E00197281739072CF4ECEBF0E01B
:1020C00085EC80832DC0ECEBF0E085E8808328C0B0
:1020D0008091BC02882F90E0EBEBF0E02081FC01C6
:1020E000E353FD4F20838091B40281608093B4025A
:1020F000ECEBF0E084E9808313C0E9EBF0E0808151
:102100008093B502ECEBF0E085EA808309C0E9EB4F
:10211000F0E080818093B502ECEBF0E084E980830D
:102120000F900F90CF91DF91FF91EF91BF91AF9101
:102130009F918F913F912F910F900FBE0F901F9005
:102140001895DF93CF93CDB7DEB728970FB6F894E5
:10215000DEBF0FBECDBF6D837E838F8398878D8159
:102160009E81AF81B885880F991FAA1FBB1F880F5A
:10217000991FAA1FBB1F880F991FAA1FBB1F880F7B
:10218000991FAA1FBB1F9C01AD0180E09DE2A1E346
:10219000B1E0BC01CD010E94A219DA01C901019789
:1021A000A109B10989839A83AB83BC83E0ECF0E099
:1021B0001082E5ECF0E089819A81AB81BC81892FA6
:1021C0009A2FAB2FBB278083E4ECF0E089818083DA
:1021D000E1ECF0E088E98083E2ECF0E086E08083E7
:1021E00028960FB6F894DEBF0FBECDBFCF91DF911A
:1021F0000895DF93CF93CDB7DEB728970FB6F89445
:10220000DEBF0FBECDBF6D837E838F8398878D81A8
:102210009E81AF81B885880F991FAA1FBB1F880FA9
:10222000991FAA1FBB1F880F991FAA1FBB1F880FCA
:10223000991FAA1FBB1F9C01AD0180E09DE2A1E395
:10224000B1E0BC01CD010E94A219DA01C9010197D8
:10225000A109B10989839A83AB83BC83E8ECF0E0E0
:102260001082EDECF0E089819A81AB81BC81892FED
:102270009A2FAB2FBB278083ECECF0E08981808321
:10228000E9ECF0E088E98083EAECF0E086E0808326
:1022900028960FB6F894DEBF0FBECDBFCF91DF9169
:1022A0000895DF93CF93CDB7DEB7E0ECF0E0808107
:1022B0008823DCF7E6ECF0E08081CF91DF91089590
:1022C000DF93CF930F92CDB7DEB78983E0ECF0E0D8
:1022D0008081882F90E0807290700097B9F3E6ECCF
:1022E000F0E0898180830F90CF91DF910895DF9393
:1022F000CF93CDB7DEB764970FB6F894DEBF0FBEAD
:10230000CDBF9B8B8A8B6C8B8C89482F50E08A8940
:102310009B899E012F5F3F4FB9010E940B1ACE018E
:1023200001960E94121264960FB6F894DEBF0FBE9B
:10233000CDBFCF91DF910895DF93CF93CDB7DEB7B7
:1023400066970FB6F894DEBF0FBECDBF9C8B8B8B0C
:102350006D8B4E8B8D89482F50E08B899C899E0117
:102360002E5F3F4FB9010E940B1ACE0102960E94C8
:10237000021A982F8E89891B8983898118167CF40B
:1023800006C089818150898380E30E946011898120
:102390001816BCF3CE0102960E94121209C0898160
:1023A0008195282FCE0102966E89422F0E94E1115D
:1023B00066960FB6F894DEBF0FBECDBFCF91DF910A
:1023C0000895DF93CF9300D000D0CDB7DEB79A83C6
:1023D00089836B834C838C81282F30E089819A819B
:1023E000820F931F9A8389830EC0E981FA8120812D
:1023F00089819A8101969A838983822F0E94601134
:102400008B8181508B83E981FA818081882319F047
:102410008B81882351F70F900F900F900F90CF91E1
:10242000DF910895DF93CF9300D0CDB7DEB79A83C5
:10243000898314C0E0ECF0E08081882F90E0807206
:1024400090700097B9F3A6ECB0E0E981FA81808141
:102450008C9389819A8101969A838983E981FA8193
:102460008081882339F70F900F90CF91DF910895E5
:10247000DF93CF93CDB7DEB7E8ECF0E0808188231F
:10248000DCF7EEECF0E08081CF91DF910895DF93EF
:10249000CF930F92CDB7DEB78983E8ECF0E080816F
:1024A000882F90E0807290700097B9F3EEECF0E026
:1024B000898180830F90CF91DF910895DF93CF932F
:1024C00000D0CDB7DEB79A83898314C0E8ECF0E082
:1024D0008081882F90E0807290700097B9F3AEEC05
:1024E000B0E0E981FA8180818C9389819A8101969B
:1024F0009A838983E981FA818081882339F70F9053
:102500000F90CF91DF9108951F920F920FB60F9207
:102510001124DF93CF93CDB7DEB7CF91DF910F902A
:102520000FBE0F901F9018951F920F920FB60F922B
:1025300011242F933F934F935F936F937F938F93C8
:102540009F93AF93BF93EF93FF93DF93CF93CDB759
:10255000DEB7EEECF0E080810E94E212CF91DF91D5
:10256000FF91EF91BF91AF919F918F917F916F916B
:102570005F914F913F912F910F900FBE0F901F9041
:102580001895DF93CF9300D00F92CDB7DEB7898334
:102590007B836A830F900F900F90CF91DF91089506
:1025A000DF93CF9300D0CDB7DEB79A83898389813B
:1025B0009A819093A7018093A6010F900F90CF91DD
:1025C000DF910895DF93CF9300D000D00F92CDB765
:1025D000DEB789838091690390916A03893C9105F4
:1025E000E8F010922303109222031092210310921C
:1025F000200310921F038FEF92E060E070E040E252
:1026000050E00E94FB191092FE02809168038E7FB9
:102610008093680310926A031092690380912303E8
:10262000282F30E03D832C838C819D818230910561
:1026300009F44DC02C813D812330310554F48C8147
:102640009D810097C9F02C813D812130310551F1E8
:10265000CAC08C819D818430910509F461C02C81B0
:102660003D81243031050CF449C08C819D81853039
:10267000910509F478C0B7C08981813081F48091D7
:1026800023038F5F80932303809122038F5F8093C6
:10269000220380916803816080936803A4C0109234
:1026A0002303A1C089818F3F59F4809122038F5F5A
:1026B00080932203809123038F5F8093230302C0C2
:1026C0001092230310926A03109269038CC08981CF
:1026D0008093210380912103855080932003809172
:1026E00022038F5F80932203809123038F5F809367
:1026F000230310926A031092690375C08981809345
:102700001F03809122038F5F809322038091230314
:102710008F5F8093230310926A031092690363C052
:102720008091FE02882F90E0FC01E150FD4F8981ED
:1027300080838091FE028F5F8093FE02809122034E
:102740008F5F809322039091FE028091200398175F
:1027500029F4809123038F5F8093230310926A03EF
:102760001092690340C0809122038F5F80932203FF
:102770001B828981843011F491E09B839091220324
:10278000809121031A82981711F421E02A838B810A
:102790003A818323882351F0E091A601F091A701AB
:1027A00080911F032FEF32E0B901099510922303A6
:1027B00010922203109221031092200310921F0303
:1027C0008FEF92E060E070E040E250E00E94FB1981
:1027D0001092FE02809168038E7F809368031092AE
:1027E0006A03109269030F900F900F900F900F9053
:1027F000CF91DF910895EF92FF920F931F937B018A
:102800008C0120E030E040E05FE40E94CB1688239A
:102810008CF0C801B70120E030E040E05FE40E94A6
:1028200073150E9459179B01AC0120503040404065
:10283000504806C0C801B7010E9459179B01AC015E
:10284000B901CA011F910F91FF90EF900895A0E088
:10285000B0E0EDE2F4E10C94C419DC012B01FA01C3
:102860009C91923008F439C1EB018881823008F4E0
:1028700033C1943069F4843009F02FC111969C91D2
:1028800011978981981709F428C1A8EAB1E025C1F8
:10289000843009F421C18230A9F4923009F01DC1BD
:1028A0009A01AD0188E0EA010990AE01E9010992BF
:1028B0009E018150C1F7E201898111969C91892383
:1028C000818308C1923009F407C112962D903C9083
:1028D0001397EB018A819B811496AD90BD90CD90AA
:1028E000DC901797EC80FD800E811F819101281BE1
:1028F000390BB90137FF04C066277727621B730BBA
:10290000603271050CF061C0121613066CF53701C8
:102910004801062E04C096948794779467940A948D
:10292000D2F721E030E040E050E004C0220F331F36
:10293000441F551F6A95D2F7215030404040504007
:102940002E213F21402351232115310541055105F9
:1029500021F021E030E040E050E079018A01E628F2
:10296000F728082919293CC0232BD1F1260E371E40
:1029700035014601062E04C0969487947794679497
:102980000A94D2F721E030E040E050E004C0220F8A
:10299000331F441F551F6A95D2F7215030404040E5
:1029A00050402A213B214C215D2121153105410553
:1029B000510521F021E030E040E050E059016A018A
:1029C000A628B728C828D9280BC0821593052CF053
:1029D0001C01AA24BB24650103C0EE24FF24870147
:1029E00011969C91D20111968C91981709F445C0CB
:1029F000992339F0A80197012A193B094C095D096F
:102A000006C0A60195012E193F09400B510B57FD39
:102A100008C0118233822282248335834683578300
:102A20001DC081E081833382228288279927DC01BF
:102A3000821B930BA40BB50B84839583A683B7836A
:102A40000DC0220F331F441F551F24833583468337
:102A50005783828193810197938382832481358177
:102A600046815781DA01C9010197A109B1098F5F38
:102A70009F4FAF4FBF4328F30BC091833382228215
:102A8000EA0CFB1C0C1D1D1DE482F58206831783D6
:102A900083E08083248135814681578157FF1AC0A6
:102AA000C901AA2797FDA095BA2F81709070A070D8
:102AB000B0705695479537952795822B932BA42B6D
:102AC000B52B84839583A683B783828193810196F6
:102AD00093838283DF0101C0D201CD01CDB7DEB780
:102AE000E2E10C94E019A0E2B0E0E9E7F5E10C9432
:102AF000D01969837A838B839C832D833E834F8394
:102B00005887E9E0EE2EF12CEC0EFD1ECE01019669
:102B1000B7010E94D1188E010F5E1F4FCE0105969E
:102B2000B8010E94D1188A8991E089278A8BC70150
:102B3000B801AE01475E5F4F0E9427140E94FC1748
:102B4000A096E6E00C94EC19A0E2B0E0EAEAF5E128
:102B50000C94D01969837A838B839C832D833E8365
:102B60004F835887F9E0EF2EF12CEC0EFD1ECE01BD
:102B70000196B7010E94D1188E010F5E1F4FCE0142
:102B80000596B8010E94D118C701B801AE01475E91
:102B90005F4F0E9427140E94FC17A096E6E00C9459
:102BA000EC19A0E2B0E0E7EDF5E10C94C4196983FB
:102BB0007A838B839C832D833E834F835887CE01FA
:102BC0000196BE01675F7F4F0E94D118CE01059626
:102BD000BE016F5E7F4F0E94D1189985923088F0B8
:102BE00089898230C8F0943019F4823051F404C0DD
:102BF000843029F4923081F488EA91E0C6C09230A2
:102C000049F420E09A858A89981321E02A87CE0129
:102C10000996BBC0823049F420E09A858A899813CE
:102C200021E02A8BCE014196B0C02D843E844F8492
:102C300058886D887E888F88988CEE24FF248701C1
:102C4000AA24BB24650140E050E060E070E0E0E0D1
:102C5000F0E0C10181709070892BE9F0E60CF71C5F
:102C6000081D191D9A01AB012A0D3B1D4C1D5D1D50
:102C700080E090E0A0E0B0E0E614F7040805190554
:102C800020F481E090E0A0E0B0E0BA01A901480F93
:102C9000591F6A1F7B1FAA0CBB1CCC1CDD1C97FE96
:102CA00008C081E090E0A0E0B0E0A82AB92ACA2AD2
:102CB000DB2A3196E032F10549F0660C771C881C5E
:102CC000991C5694479437942794C3CFFA85EA8980
:102CD0002B893C898B859C85280F391F2E5F3F4FA0
:102CE00017C0CA0181709070892B61F01695079505
:102CF000F794E79480E090E0A0E0B0E8E82AF92AB1
:102D00000A2B1B2B76956795579547952F5F3F4F5D
:102D100077FDE7CF0CC0440F551F661F771F17FDC7
:102D20004160EE0CFF1C001F111F2150304040304D
:102D300090E0590790E0690790E4790760F32B8FE2
:102D40003C8FDB01CA018F779070A070B070803427
:102D50009105A105B10561F447FD0AC0E114F10434
:102D60000105110529F0405C5F4F6F4F7F4F4078A0
:102D70001A8EFE1711F081E08A8F4D8F5E8F6F8F54
:102D800078A383E0898FCE0149960E94FC17A09614
:102D9000E2E10C94E019A8E1B0E0E1EDF6E10C9479
:102DA000D01969837A838B839C832D833E834F83E1
:102DB000588789E0E82EF12CEC0EFD1ECE0101961D
:102DC000B7010E94D1188E010F5E1F4FCE010596EC
:102DD000B8010E94D1188985823040F089898230FB
:102DE00028F0C701B8010E94491901C08FEF689609
:102DF000E6E00C94EC19A8E0B0E0E1E0F7E10C9417
:102E0000CD199B01AC0183E08983DA01C9018827D0
:102E1000B7FD83959927AA27BB27B82E2115310521
:102E20004105510519F482E089833AC08823A9F04D
:102E3000203080E0380780E0480780E8580729F410
:102E400060E070E080E09FEC30C0EE24FF2487015A
:102E5000E21AF30A040B150B02C079018A018EE114
:102E6000C82ED12CDC82CB82ED82FE820F831887A4
:102E7000C801B7010E94AD1701971816190684F40E
:102E8000082E04C0EE0CFF1C001F111F0A94D2F77D
:102E9000ED82FE820F831887C81AD90ADC82CB82A2
:102EA000BA82CE0101960E94FC172896E9E00C94A4
:102EB000E919ACE0B0E0EFE5F7E10C94D4196983CF
:102EC0007A838B839C83CE010196BE016B5F7F4F1B
:102ED0000E94D1188D81823061F1823050F18430AE
:102EE00021F48E81882351F12EC02F81388537FD42
:102EF00020C06E812F3131051CF06623F9F023C00C
:102F00008EE190E0821B930B29853A854B855C8589
:102F100004C056954795379527958A95D2F766232D
:102F2000B1F050954095309521953F4F4F4F5F4FF1
:102F30000EC020E030E040E050E009C02FEF3FEF4E
:102F40004FEF5FE704C020E030E040E050E8B90117
:102F5000CA012C96E2E00C94F019EF92FF920F93C5
:102F60001F937B018C0180E0E81680E0F80681E089
:102F7000080780E0180788F48FEFE816F1040105D0
:102F8000110531F028F088E090E0A0E0B0E017C033
:102F900080E090E0A0E0B0E012C080E0E81680E0C1
:102FA000F80680E0080781E0180728F088E190E043
:102FB000A0E0B0E004C080E190E0A0E0B0E020E25A
:102FC00030E040E050E0281B390B4A0B5B0B04C09B
:102FD00016950795F794E7948A95D2F7F701E0558F
:102FE000FE4F8081281B310941095109C9011F91F8
:102FF0000F91FF90EF900895DF92EF92FF920F9361
:103000001F93FC01E480F58006811781D1808081C7
:10301000823048F480E090E0A0E1B0E0E82AF92AAC
:103020000A2B1B2BA5C0843009F49FC0823021F4E9
:10303000EE24FF24870105C0E114F1040105110508
:1030400019F4E0E0F0E096C0628173819FEF62388E
:1030500079070CF05BC022E83FEF261B370B2A31C3
:1030600031052CF020E030E040E050E02AC0B8010B
:10307000A701022E04C076956795579547950A9447
:10308000D2F781E090E0A0E0B0E004C0880F991F83
:10309000AA1FBB1F2A95D2F70197A109B1098E215A
:1030A0009F21A023B1230097A105B10521F081E064
:1030B00090E0A0E0B0E09A01AB01282B392B4A2B1D
:1030C0005B2BDA01C9018F779070A070B0708034EB
:1030D0009105A105B10539F427FF09C0205C3F4FD8
:1030E0004F4F5F4F04C0215C3F4F4F4F5F4FE0E0B9
:1030F000F0E02030A0E03A07A0E04A07A0E45A0739
:1031000010F0E1E0F0E079018A0127C06038710534
:1031100064F5FB01E158FF4FD801C7018F7790702C
:10312000A070B07080349105A105B10539F4E7FEB7
:103130000DC080E490E0A0E0B0E004C08FE390E038
:10314000A0E0B0E0E80EF91E0A1F1B1F17FF05C024
:1031500016950795F794E794319687E016950795AD
:10316000F794E7948A95D1F705C0EE24FF248701F0
:10317000EFEFF0E06E2F679566276795902F9F77AA
:10318000D794DD24D7948E2F8695492F462B582F20
:103190005D29B701CA011F910F91FF90EF90DF9059
:1031A0000895FC01DB01408151812281622F6F77FC
:1031B00070E0221F2227221F9381892F880F822BE4
:1031C000282F30E0991F9927991F11969C931197EA
:1031D00021153105A9F5411551056105710511F458
:1031E00082E037C082E89FEF13969C938E931297EC
:1031F0009A01AB0167E0220F331F441F551F6A95E8
:10320000D1F783E08C930DC0220F331F441F551F4D
:1032100012968D919C911397019713969C938E9380
:103220001297203080E0380780E0480780E4580794
:1032300058F314962D933D934D935C9317970895EF
:103240002F3F310579F4411551056105710519F4D8
:1032500084E08C93089564FF03C081E08C9312C0D6
:103260001C9210C02F57304013963C932E93129708
:1032700083E08C9387E0440F551F661F771F8A9564
:10328000D1F7706414964D935D936D937C9317976B
:1032900008951F93DC01FB019C91923008F447C014
:1032A0008081823008F443C0943051F411961C910F
:1032B000843099F58181682F70E0611B71093FC0EE
:1032C000843021F0923031F48230B9F18181882349
:1032D00089F12DC011961C9111978230F1F08181F6
:1032E0001817D9F412962D913C91139782819381EE
:1032F0008217930794F028173907BCF014968D9124
:103300009D910D90BC91A02D2481358146815781DE
:10331000281739074A075B0718F4112341F00AC040
:1033200082179307A407B50740F4112319F061E051
:1033300070E005C06FEF7FEF02C060E070E0CB018E
:103340001F910895A1E21A2EAA1BBB1BFD010DC0FF
:10335000AA1FBB1FEE1FFF1FA217B307E407F50745
:1033600020F0A21BB30BE40BF50B661F771F881F21
:10337000991F1A9469F760957095809590959B01B7
:10338000AC01BD01CF0108952F923F924F925F9201
:103390006F927F928F929F92AF92BF92CF92DF9265
:1033A000EF92FF920F931F93CF93DF93CDB7DEB7CA
:1033B000CA1BDB0B0FB6F894DEBF0FBECDBF09945E
:1033C0002A88398848885F846E847D848C849B84B5
:1033D000AA84B984C884DF80EE80FD800C811B81C3
:1033E000AA81B981CE0FD11D0FB6F894DEBF0FBEF2
:1033F000CDBFED010895DC0101C06D9341505040F7
:10340000E0F70895FC0101900020E9F78095909580
:103410008E0F9F1F0895FB019F01E8944230C4F076
:103420004532B4F44A3029F497FB1EF49095819507
:103430009F4F642F77270E943C1A805D8A330CF0DF
:10344000895D8193CB010097A1F716F45DE251935A
:103450001082C9010C942C1ADC01FC01672F7191B8
:103460007723E1F7329704C07C916D93708362916A
:10347000AE17BF07C8F30895AA1BBB1B51E107C0D5
:10348000AA1FBB1FA617B70710F0A61BB70B881FF4
:10349000991F5A95A9F780959095BC01CD01089583
:0434A000F894FFCFCE
:1034A4000A493243204552524F52202D2054574945
:1034B4002053544154453A20307800476573746171
:1034C40072742057696C64205468756D706572005D
:1034D40042756D706572205377697463682031207A
:1034E40050726573736564200D0A0042756D7065D2
:1034F4007220537769746368203120556E70726549
:1035040073736564200D0A0042756D7065722053F3
:103514007769746368203220507265737365642020
:103524000D0A0042756D7065722053776974636883
:10353400203220556E70726573736564200D0A0025
:103544007B0A370C530CC11200000000000000007D
:103554000001020203030303040404040404040436
:103564000505050505050505050505050505050507
:1035740006060606060606060606060606060606E7
:1035840006060606060606060606060606060606D7
:1035940007070707070707070707070707070707B7
:1035A40007070707070707070707070707070707A7
:1035B4000707070707070707070707070707070797
:1035C4000707070707070707070707070707070787
:1035D4000808080808080808080808080808080867
:1035E4000808080808080808080808080808080857
:1035F4000808080808080808080808080808080847
:103604000808080808080808080808080808080836
:103614000808080808080808080808080808080826
:103624000808080808080808080808080808080816
:103634000808080808080808080808080808080806
:1036440008080808080808080808080808080808F6
:00000001FF
