:100000000C9475000C9487000C9487000C94870066
:100010000C9487000C9487000C9413060C94FF0733
:100020000C9487000C9487000C9487000C94870034
:100030000C9487000C94C5040C9487000C948700E2
:100040000C9475010C9487000C9487000C94870025
:100050000C9487000C9487000C9487000C94870004
:100060000C9487000C9487000C94DC0E0C94870091
:100070000C9487000C9487000C948700880D8F0DDA
:10008000980DA10DAA0D0C0E0C0E0C0E0C0EB30D3E
:10009000BB0DC30DCB0DD30DDB0D0C0E0C0E0C0EDA
:1000A0000C0E0C0E0C0E0C0E0C0E0C0E0C0E0C0E80
:1000B0000C0EEA0D0C0EF50D0C0E0C0EFB0D010EC8
:1000C000070E0C0E0C0E0C0E0C0E0C0E0C0E0C0E65
:1000D0000C0E0C0E0C0E0C0E0C0E0C0E0C0E0C0E50
:1000E0000C0EE30DE30DE30DE30D11241FBECFEF66
:1000F000D0E1DEBFCDBF22E0A0E0B1E001C01D92A3
:10010000A530B207E1F70E940D0E0C9438110C9443
:10011000000081E58CBD809193018EBD0DB407FE7A
:10012000FDCF80911B018EBD0DB407FEFDCF1CBC21
:100130002E9A00002E98089580B18095881F8827F8
:10014000881F069B8E5F1A9B8C5F199B885F189B8C
:10015000805F379B805E0895CF938091B301863096
:1001600068F086E08093B3018091B1019091B20173
:100170009093AB018093AA01C1E001C0C0E08091DF
:10018000A301863060F086E08093A301CE5F80916A
:100190002B0190912C019093830180938201809197
:1001A0009701863060F086E080939701CC5F809164
:1001B00044019091450190932A01809329018091F7
:1001C0009C01863060F086E080939C01C85F80913E
:1001D000230190912401909368018093670180919D
:1001E0009401863060F086E080939401C05F809136
:1001F00088019091890190931E0180931D01809147
:100200003901863060F086E080933901C05E8091CC
:100210000D0190910E0190932E0180932D010E946B
:1002200089008C2FCF91089580E280937C0083EE2B
:1002300080937A0010927B000895109278001092BB
:100240007900ECE7F0E09081907E90839081892B9B
:10025000808388EE93E000000197E9F7EAE7F0E099
:10026000808180648083808184FFFDCFEAE7F0E0B5
:10027000808180618083809179000895CF9385E0AB
:100280000E941D01C1E0853608F4C0E084E00E94B0
:100290001D01853608F0CE5F83E00E941D01853682
:1002A00008F0CC5F82E00E941D01853608F0C85F2F
:1002B00081E00E941D01853608F0C05F80E00E9449
:1002C0001D01853608F0C05E8C2FCF9108950E94E5
:1002D0001D01089582E084BD85BD82E387BDEEE601
:1002E000F0E080818260808308951F920F920FB6A4
:1002F0000F9211242F933F938F939F93809100012E
:10030000909101018F3F910559F050F01092010139
:100310001092000185B1886185B98BB1806F8BB96E
:1003200080910001909101010196909301018093C9
:1003300000012091AA013091AB018217930708F0C8
:100340002C9880918201909183012091000130913D
:1003500001012817390708F02B9880912901909105
:100360002A0120910001309101012817390708F076
:100370005F98809167019091680120910001309110
:1003800001012817390708F05E9880911D019091AE
:100390001E0120910001309101012817390708F052
:1003A0005D9880912D0190912E0120910001309156
:1003B00001012817390708F05C989F918F913F91B0
:1003C0002F910F900FBE0F901F9018950F931F93B2
:1003D000CF93DF93E82F362F823079F4ABE1B1E091
:1003E0008C91807C85658F778C9380919301887F39
:1003F0008560877F8093930119C0813079F4ABE1E8
:10040000B1E08C9180788A6280688C9380919301AE
:10041000887F826088608093930108C010921B01DE
:1004200080919301887F877F80939301423009F008
:100430007AC0C32FD0E0D0932401C0932301D0937E
:100440008901C0938801D0930E01C0930D012E370E
:10045000D0F48E01209FC001219F900D11246EE7E2
:1004600070E00E94C310C801861B970B9093B201E5
:100470008093B10190932C0180932B0190934501BF
:10048000809344011CC12E3769F41092B20110927E
:10049000B10110922C0110922B0110924501109283
:1004A00044010DC1ABE1B1E08C9191E0482F4927A7
:1004B00040FB80F981FB442740F9492740FB81F943
:1004C00082FB442740F9492740FB82F983FB4427FC
:1004D00040F9492740FB83F984FB442740F9492729
:1004E00040FB84F985FB442740F9942790FB85F96C
:1004F0008C93422F50E04E575109349FC001359FD5
:10050000900D11246EE770E00E94C3107093B20149
:100510006093B10170932C0160932B01709345019E
:1005200060934401CCC0413009F07EC0C32FD0E0BD
:10053000D093B201C093B101D0932C01C0932B0191
:10054000D0934501C09344012E37D0F48E01209FF3
:10055000C001219F900D11246EE770E00E94C3102E
:10056000C801861B970B90932401809323019093DD
:1005700089018093880190930E0180930D01CDC075
:100580002E3769F4109224011092230110928901F0
:100590001092880110920E0110920D01BEC0ABE1C5
:1005A000B1E08C9141E0982F942790FB86F981FB74
:1005B000992790F9942790FB87F98C9382FB552714
:1005C00050F954279091930150FB90F983FB5527E4
:1005D00050F9542750FB91F984FB552750F95427C3
:1005E00050FB92F985FB882780F9842780FB93F9DB
:1005F00090939301422F50E04E575109349FC00110
:10060000359F900D11246EE770E00E94C310709327
:100610002401609323017093890160938801709392
:100620000E0160930D0179C0832F90E09093B20189
:100630008093B10190932C0180932B0190934501FD
:100640008093440190932401809323019093890126
:100650008093880190930E0180930D01E33009F49B
:1006600060C00E94890082C0D093B201C093B101E2
:1006700036953695632F70E070932C0160932B01B3
:10068000D0934501C0934401D0932401C09323012A
:100690007093890160938801D0930E01C0930D017E
:1006A000EBE1F1E0808180788561806880838091D2
:1006B0009301887F8260886080939301D2CFE3307A
:1006C00081F6D2CFD093B201C093B1013695369561
:1006D000832F90E090932C0180932B01D0934501C0
:1006E000C0934401D0932401C093230190938901C6
:1006F00080938801D0930E01C0930D01EBE1F1E0EE
:100700008081807E8A668F77808380919301887F45
:100710008560877F80939301A4CFE33009F0A1CF58
:10072000D1CF9093B2018093B10136953695632F66
:1007300070E070932C0160932B019093450180939E
:100740004401909324018093230170938901609365
:10075000880190930E0180930D0110921B018091EE
:100760009301887F877F809393017BCFDF91CF9127
:100770001F910F9108958130C9F4EBE1F1E0808180
:100780008E7F8D7F808350E05093B2014093B10102
:10079000623019F4816080838EC0613009F08BC0B3
:1007A000EBE1F1E080818260808385C08230C9F412
:1007B000EBE1F1E080818B7F877F808350E0509375
:1007C0002C0140932B01623019F48460808373C044
:1007D000613009F070C0EBE1F1E0808188608083D6
:1007E0006AC08330C9F4EBE1F1E080818F7E8F7DB8
:1007F000808350E05093450140934401623019F4E6
:100800008061808358C0613009F055C0EBE1F1E0B0
:100810008081806280834FC08430C1F4EBE1F1E0DD
:1008200080818F7B8F77808350E0509324014093A9
:100830002301623019F4806480833DC06130D9F5B2
:10084000EBE1F1E080818068808335C08530C9F4B8
:10085000809193018E7F8D7F8093930150E0509320
:10086000890140938801623021F481608093930173
:1008700022C0613001F580919301826080939301E1
:100880001AC08630C1F4809193018B7F877F80935B
:10089000930150E050930E0140930D01623021F41A
:1008A00084608093930107C0613029F480919301A3
:1008B0008860809393010E948900089510921B0123
:1008C00090919301987F977F909393019CEC980F60
:1008D000923038F4EBE1F1E090E095609061908324
:1008E0000AC09AEC980F923030F4EBE1F1E090817D
:1008F0009A60906290838D7F843361F4EBE1F1E044
:100900008081806480838091930181608460809382
:1009100093010DC0853359F4EBE1F1E080818068EB
:10092000808380919301826088608093930170E05E
:100930007093B2016093B10170932C0160932B010D
:10094000709345016093440150E05093240140931B
:100950002301509389014093880150930E014093E5
:100960000D010E9489000895109280008AE0809312
:10097000810089EF90E0909389008093880008952A
:1009800082E080936F00789408951F920F920FB6C3
:100990000F9211242F938F939F93EF93FF93809146
:1009A0003C0190913D01019690933D0180933C0163
:1009B00080915D0190915E01019690935E0180931C
:1009C0005D0180912F01909130010196909330014B
:1009D00080932F018091350190913601019690937B
:1009E0003601809335018091A8019091A90101966B
:1009F0009093A9018093A801809111019091120117
:100A00000196909312018093110180913C01909185
:100A10003D0181329E4480F01092A6011092A50102
:100A20008091B1019091B2018536910528F08091B5
:100A3000B3018F5F8093B30180915D0190915E015E
:100A400081329E4480F01092990110929801809119
:100A50002B0190912C018536910528F08091A301FE
:100A60008F5F8093A30180912F019091300181329B
:100A70009E4480F010929B0110929A0180912B016C
:100A800090912C018536910528F0809197018F5F18
:100A900080939701809135019091360181329E4477
:100AA00080F01092380110923701809123019091CB
:100AB00024018536910528F080919C018F5F8093F9
:100AC0009C018091A8019091A90181329E4480F0FF
:100AD00010924701109246018091880190918901FE
:100AE0008536910528F0809194018F5F8093940161
:100AF000809111019091120181329E4480F01092F8
:100B00003F0110923E0180910D0190910E018536BA
:100B1000910528F0809139018F5F80933901809190
:100B20009D0190919E01019690939E0180939D015D
:100B30008091A40191E0980F9093A4018A3008F469
:100B40005AC08091710180FF07C0E1E7F1E0818127
:100B500092810196928381838091710181FF07C008
:100B6000E1E7F1E08381948101969483838380910E
:100B7000710182FF07C0E1E7F1E08581968101966E
:100B8000968385838091710183FF07C0E1E7F1E0DF
:100B9000878190850196908787838091710184FF7A
:100BA00007C0E1E7F1E08185928501969287818710
:100BB0008091710185FF07C0E1E7F1E083859485AD
:100BC0000196948783878091710186FF07C0E1E7D2
:100BD000F1E08585968501969687858780917101DC
:100BE00088233CF4E1E7F1E0878590890196908BBA
:100BF00087871092A401FF91EF919F918F912F9180
:100C00000F900FBE0F901F9018958CE08093680096
:100C10001BBA10926B0010926C0098E790936D00D5
:100C20008093730008951F920F920FB60F921124B4
:100C30002F933F935F936F937F938F939F93AF9384
:100C4000BF93369B38C08091A701811134C081E0E9
:100C50008093A70120913C0130913D018091B40126
:100C60009091B501820F931F969587959093B5014A
:100C70008093B4016091B4017091B50180EE9DEA5A
:100C80000E94AF107093A6016093A5018091A50109
:100C90009091A6018F3F910539F030F08FEF90E0F1
:100CA0009093A6018093A50110923D0110923C0102
:100CB0001092B30138C0369936C08091A7018823BD
:100CC00091F11092A70120913C0130913D0180915A
:100CD000B4019091B501820F931F969587959093DB
:100CE000B5018093B4016091B4017091B50180EEBB
:100CF0009DEA0E94AF107093A6016093A5018091B8
:100D0000A5019091A6018F3F910539F030F08FEF4A
:100D100090E09093A6018093A50110923D0110925E
:100D20003C011092B301359B38C08091480181117C
:100D300034C081E08093480120915D0130915E01D3
:100D40008091650190916601820F931F969587951A
:100D500090936601809365016091650170916601D1
:100D600080EE9DEA0E94AF10709399016093980104
:100D700080919801909199018F3F910539F030F061
:100D80008FEF90E0909399018093980110925E010B
:100D900010925D011092A30138C0359936C0809140
:100DA0004801882391F11092480120915D01309112
:100DB0005E018091650190916601820F931F969567
:100DC00087959093660180936501609165017091AC
:100DD000660180EE9DEA0E94AF10709399016093C6
:100DE000980180919801909199018F3F910539F078
:100DF00030F08FEF90E090939901809398011092DA
:100E00005E0110925D011092A301349B3CC0809161
:100E1000AC01811138C081E08093AC0120912F0199
:100E2000309130018091130190911401820F931F32
:100E30009695879590931401809313016091130107
:100E40007091140180EE9DEA0E94AF1070939B0197
:100E500060939A0180919A0190919B018F3F910537
:100E600039F030F08FEF90E090939B0180939A01DE
:100E700080919A0190919B011092300110922F0164
:100E8000109297013CC034993AC08091AC018823FC
:100E9000B1F11092AC0120912F013091300180917D
:100EA000130190911401820F931F9695879590934B
:100EB000140180931301609113017091140180EE6D
:100EC0009DEA0E94AF1070939B0160939A018091FC
:100ED0009A0190919B018F3F910539F030F08FEF8F
:100EE00090E090939B0180939A0180919A01909158
:100EF0009B011092300110922F0110929701339BA9
:100F000038C080919601811134C081E080939601B0
:100F1000209135013091360180915F0190916001FF
:100F2000820F931F969587959093600180935F0140
:100F300060915F017091600180EE9DEA0E94AF10A8
:100F40007093380160933701809137019091380197
:100F50008F3F910539F030F08FEF90E0909338019A
:100F600080933701109236011092350110929C0146
:100F700038C0339936C080919601882391F1109240
:100F80009601209135013091360180915F01909159
:100F90006001820F931F96958795909360018093CF
:100FA0005F0160915F017091600180EE9DEA0E9497
:100FB000AF107093380160933701809137019091A1
:100FC00038018F3F910539F030F08FEF90E090932A
:100FD000380180933701109236011092350110923A
:100FE0009C01BF91AF919F918F917F916F915F9184
:100FF0003F912F910F900FBE0F901F9018951F9249
:101000000F920FB60F9211242F933F935F936F931C
:101010007F938F939F93AF93BF934B9B38C08091E7
:101020008A01811134C081E080938A012091A80156
:101030003091A90180913A0190913B01820F931F59
:101040009695879590933B0180933A0160913A0180
:1010500070913B0180EE9DEA0E94AF1070934701B2
:101060006093460180914601909147018F3F910521
:1010700039F030F08FEF90E0909347018093460174
:101080001092A9011092A8011092940138C04B99B6
:1010900036C080918A01882391F110928A012091B3
:1010A000A8013091A90180913A0190913B01820FF2
:1010B000931F9695879590933B0180933A01609199
:1010C0003A0170913B0180EE9DEA0E94AF1070934F
:1010D00047016093460180914601909147018F3FFF
:1010E000910539F030F08FEF90E0909347018093B5
:1010F00046011092A9011092A801109294014A9BF6
:1011000038C080919501811134C081E080939501B0
:10111000209111013091120180910F0190911001E5
:10112000820F931F969587959093100180930F01DE
:1011300060910F017091100180EE9DEA0E94AF1046
:1011400070933F0160933E0180913E0190913F0179
:101150008F3F910539F030F08FEF90E090933F0191
:1011600080933E01109212011092110110923901E8
:1011700038C04A9936C080919501882391F1109228
:101180009501209111013091120180910F019091F0
:101190001001820F931F969587959093100180936D
:1011A0000F0160910F017091100180EE9DEA0E9485
:1011B000AF1070933F0160933E0180913E0190918A
:1011C0003F018F3F910539F030F08FEF90E0909321
:1011D0003F0180933E011092120110921101109272
:1011E0003901BF91AF919F918F917F916F915F91E5
:1011F0003F912F910F900FBE0F901F901895A091C7
:10120000B401B091B5012091650130916601E09182
:101210001301F091140160915F01709160014091A0
:101220003A0150913B0180910F01909110012A0FDA
:101230003B1F2E0F3F1F260F371F240F351F280F70
:10124000391FABEABAEA0E94FC10BC01769567959B
:10125000769567956115710529F080E197E20E9406
:10126000AF1002C060E070E080E090E00E94A40F48
:1012700020E030E040E550E40E940A100E94750F23
:10128000CB010895EF92FF920F931F93109261018B
:101290001092620110926301109264011092490150
:1012A00010924A0110924B0110924C0110923101A0
:1012B00010923201109233011092340110928F017A
:1012C00010929001109291011092920110924D0192
:1012D00010924E0110924F01109250011092B801DD
:1012E0001092B9011092BA011092BB0110925101F3
:1012F00010925201109253011092540110928401E5
:1013000010928501109286011092870110921F01A0
:101310001092200110922101109222011092550189
:1013200010925601109257011092580110926D01BF
:1013300010926E0110926F01109270011092400194
:1013400010924101109242011092430160939F015B
:101350007093A0018093A1019093A2012093590161
:1013600030935A0140935B0150935C01E0928B01F2
:10137000F0928C0100938D0110938E0180919F015A
:101380009091A001A091A101B091A2019C01AD0199
:101390002F5F3F4F4F4F5F4F6FEF7FE780E090E051
:1013A0000E94D710209325013093260140932701F6
:1013B000509328018091590190915A01A0915B01AD
:1013C000B0915C019C01AD012F5F3F4F4F4F5F4FCC
:1013D0006FEF7FEF8FEF9FE30E94D710209369019B
:1013E00030936A0140936B0150936C011F910F91F0
:1013F000FF90EF900895EF92FF920F931F9386E373
:1014000090E0A0E0B0E08093170190931801A093C2
:101410001901B0931A01E0900901F0900A010091BE
:101420000B0110910C012091AD013091AE01409162
:10143000AF015091B0016091170170911801809136
:10144000190190911A010E9442091F910F91FF907A
:10145000EF900895EF92FF920F931F9382E090E038
:10146000A0E0B0E08093AD019093AE01A093AF01F6
:10147000B093B001E0900901F0900A0100910B01D6
:1014800010910C012091AD013091AE014091AF015E
:101490005091B0016091170170911801809119016C
:1014A00090911A010E9442091F910F91FF90EF90B5
:1014B0000895EF92FF920F931F9380E190E0A0E0D8
:1014C000B0E08093090190930A01A0930B01B093BF
:1014D0000C01E0900901F0900A0100910B011091BC
:1014E0000C012091AD013091AE014091AF015091BE
:1014F000B0016091170170911801809119019091CC
:101500001A010E9442091F910F91FF90EF900895D8
:101510002F923F924F925F926F927F928F929F9203
:10152000AF92BF92CF92DF92EF92FF920F931F93F1
:10153000CF93DF93E82F8B01EA01813089F480900B
:10154000610190906201A0906301B0906401C0902D
:101550005101D0905201E0905301F090540165C0C8
:10156000823089F48090490190904A01A0904B010B
:10157000B0904C01C0908401D0908501E09086012C
:10158000F090870152C0833089F4809031019090AF
:101590003201A0903301B0903401C0901F01D0906F
:1015A0002001E0902101F09022013FC0843089F4B5
:1015B00080908F0190909001A0909101B090920145
:1015C000C0905501D0905601E0905701F09058011D
:1015D0002CC0853089F480904D0190904E01A090F0
:1015E0004F01B0905001C0906D01D0906E01E0901D
:1015F0006F01F090700119C0863089F48090B801B5
:101600009090B901A090BA01B090BB01C090400188
:10161000D0904101E0904201F090430106C0C12CFE
:10162000D12C7601812C912C5401A8014C1B5D0B0F
:10163000CA01052E000CAA0BBB0B4090250150904F
:1016400026016090270170902801481659066A0605
:101650007B06C4F440909F015090A0016090A101CE
:101660007090A201409125015091260160912701BF
:1016700070912801449E1001459E300C549E300C00
:10168000112443C04090250150902601609027010D
:10169000709028017094609450944094411C511CA7
:1016A000611C711C84159505A605B705FCF44091D5
:1016B00025015091260160912701709128014090E9
:1016C0009F015090A0016090A1017090A2017095BF
:1016D0006095509541955F4F6F4F7F4F449D10012E
:1016E000459D300C549D300C11240FC040909F013B
:1016F0005090A0016090A1017090A201449D100142
:10170000459D300C549D300C1124880E991EAA1E44
:10171000BB1E8091690190916A01A0916B01B0910B
:101720006C0188159905AA05BB056CF480906901C8
:1017300090906A01A0906B01B0906C016FEF7FEF09
:101740008FEF9FE335C08091690190916A01A0916C
:101750006B01B0916C01B095A095909581959F4FCC
:10176000AF4FBF4F88169906AA06BB06ACF480900F
:10177000690190906A01A0906B01B0906C01B094E7
:10178000A09490948094811C911CA11CB11C61E0D8
:1017900070E080E090EC0CC06091590170915A01AA
:1017A00080915B0190915C01A50194010E949F10C2
:1017B0002E01DD0F6608770820918B0130918C0196
:1017C00040918D0150918E01C418D508E608F708A4
:1017D000C29ED001C39EB00DD29EB00D1124E13047
:1017E00089F48092610190926201A0926301B092AB
:1017F00064014092510150925201609253017092E3
:1018000054015EC0E23089F48092490190924A010D
:10181000A0924B01B0924C014092840150928501FC
:1018200060928601709287014BC0E33089F4809208
:10183000310190923201A0923301B0923401409272
:101840001F0150922001609221017092220138C044
:10185000E43089F480928F0190929001A0929101DE
:10186000B0929201409255015092560160925701F8
:101870007092580125C0E53089F480924D01909214
:101880004E01A0924F01B092500140926D015092D2
:101890006E0160926F017092700112C0E63081F4A7
:1018A0008092B8019092B901A092BA01B092BB01A6
:1018B0004092400150924101609242017092430176
:1018C0006101330CEE08FF08AB01BC014C0D5D1D3E
:1018D0006E1D7F1DCD01BB0FAA0BBB0B480F591FFF
:1018E0006A1F7B1FDB01CA0177231CF44F96A11DE1
:1018F000B11D689414F8B595A7959795879516949A
:10190000D1F78F3F910509F03CF481302FEF92071A
:101910002CF480E090E002C08FEF90E004311105DC
:1019200054F081509F4F9C0112F42F5F3F4FC9012B
:101930009595879502C080E090E0DF91CF911F914F
:101940000F91FF90EF90DF90CF90BF90AF909F905E
:101950008F907F906F905F904F903F902F90089561
:1019600010929E0110929D0190E020919D01309176
:101970009E0128173907C8F30895CF93DF93009786
:1019800031F0EC018AE00E94B00C2197D9F7DF9189
:10199000CF910895CF93DF93D4E08091930180613C
:1019A00080939301C4E084E690E00E94BD0C0E9405
:1019B000890080919301880F80939301C15099F71A
:1019C000D15059F71092930188EC90E00E94BD0C21
:1019D00080EF809393010E94890084EF91E00E9440
:1019E000BD0C109293010E948900DF91CF91089560
:1019F000CF93DF9380910601811150C0C5EDD1E0F6
:101A000019828091A5019091A6018A838091980105
:101A1000909199018B8380919A0190919B018C8385
:101A200080913701909138018D838091460190918A
:101A300047018E8380913E0190913F018F830E94E8
:101A4000FF08888785E00E9467018A8784E00E94FA
:101A500067018B8783E00E9467018C8782E00E9488
:101A600067018D8781E00E9467018E8780E00E9478
:101A700067018F870E94AC00888B0E949C00898B35
:101A80000E943E018A8B809193018E8B809102018E
:101A90008F8B80910801811180910701DF91CF9197
:101AA00008958091C5018823F9F080910501811185
:101AB0001AC0E5ECF1E080818093C301108281813E
:101AC0008093BD0182818093BF0183818093C00197
:101AD00084818093BE0185818093C101868180933A
:101AE000BC0181E0089580E008950E94510D882393
:101AF00009F492C08091C301482F50E0FA01319758
:101B0000E733F10508F088C0E25CFF4F0C94F61053
:101B100020E040E060E080E00E94E601089520912E
:101B2000BF0142E06091BD0182E00E94E60108959C
:101B30002091BF0141E06091BD0182E00E94E60179
:101B400008952091BF0142E06091BD0181E00E94B3
:101B5000E60108952091BF0141E06091BD0181E05F
:101B60000E94E60108954091BD016091BF0181E0AE
:101B70000E94BB0308954091BD016091BF0182E0C6
:101B80000E94BB0308954091BD016091BF0183E0B5
:101B90000E94BB0308954091BD016091BF0184E0A4
:101BA0000E94BB0308954091BD016091BF0185E093
:101BB0000E94BB0308954091BD016091BF0186E082
:101BC0000E94BB0308954091BD016091BF010E9436
:101BD0005E040895809193018F709091BD01890FEB
:101BE000809393010E94890008958091BD018F5FC9
:101BF0008093020108958091BF0190E00E94FB094B
:101C000008958091BF0190E00E942A0A0895809172
:101C1000BF0190E00E94590A089580EC82B987E0E4
:101C200085B980E888B981E08BB911B888EF84B9AB
:101C300084E087B982EF8AB90E94B4040E9414013B
:101C40000E946A010E9405068BE00E94CE0E7894E5
:101C50000E94C0040E94CA0CE1E7F1E0808181602B
:101C6000808386E390E0A0E0B0E08093170190933A
:101C70001801A0931901B0931A011092AD011092AE
:101C8000AE011092AF011092B00180E190E0A0E0AF
:101C9000B0E08093090190930A01A0930B01B093E7
:101CA0000C01E0900901F0900A0100910B011091E4
:101CB0000C012091AD013091AE014091AF015091E6
:101CC000B0016091170170911801809119019091F4
:101CD0001A010E94420984E090E00E94BD0C4091EC
:101CE000A5015091A6016091B1017091B20181E00E
:101CF0000E94880A9093AB018093AA0140919801B9
:101D00005091990160912B0170912C0182E00E9409
:101D1000880A909383018093820140919A015091A7
:101D20009B01609144017091450183E00E94880A03
:101D300090932A01809329014091370150913801F5
:101D4000609123017091240184E00E94880A90939D
:101D5000680180936701409146015091470160916D
:101D600088017091890185E00E94880A90931E0184
:101D700080931D0140913E0150913F0160910D0102
:101D800070910E0186E00E94880A90932E01809344
:101D90002D010E94750D0E94F80C9DCFF894809340
:101DA000BA008FEF8093BB00ECEBF0E084E080831F
:101DB000789485EC808308951F920F920FB60F924E
:101DC00011248F93EF93FF938091B900803909F428
:101DD00070C050F4803709F465C0803809F442C0FF
:101DE000803609F077C034C0883A51F020F4803A48
:101DF00009F467C06FC0883B51F0803CE1F06AC0D5
:101E000084E08093040181E08093060104C0809106
:101E10000401843061F4E091030181E08E0F80932E
:101E20000301F0E0EB52FE4F80818093BB0085EC14
:101E30008093BC0052C010920401109203011092D2
:101E4000060181E08093080185EC8093BC0045C0C9
:101E500081E08093050182E08093040185EC80930A
:101E6000BC003BC080910401823051F48091BB00E2
:101E7000809303018093070183E0809304010EC0E7
:101E8000833061F4E091030181E08E0F80930301C0
:101E9000F0E08091BB00EB53FE4F808385EC809394
:101EA000BC001BC081E08093040185EC8093BC00E2
:101EB00014C08091BB008093C40185EC8093BC006A
:101EC0000CC085E08093040185EC8093BC001092E7
:101ED000050103C084E88093BC00FF91EF918F91CE
:101EE0000F900FBE0F901F9018950E94E90F88F079
:101EF0009F5798F0B92F9927B751B0F0E1F0660FCE
:101F0000771F881F991F1AF0BA95C9F714C0B1300E
:101F100091F00E940310B1E008950C940310672F14
:101F2000782F8827B85F39F0B93FCCF3869577953D
:101F30006795B395D9F73EF4909580957095619526
:101F40007F4F8F4F9F4F0895E89409C097FB3EF451
:101F500090958095709561957F4F8F4F9F4F9923F6
:101F6000A9F0F92F96E9BB279395F6958795779574
:101F70006795B795F111F8CFFAF4BB0F11F460FF34
:101F80001BC06F5F7F4F8F4F9F4F16C0882311F08C
:101F900096E911C0772321F09EE8872F762F05C0A0
:101FA000662371F096E8862F70E060E02AF09A953B
:101FB000660F771F881FDAF7880F9695879597F930
:101FC000089557FD9058440F551F59F05F3F71F029
:101FD0004795880F97FB991F61F09F3F79F0879590
:101FE0000895121613061406551FF2CF4695F1DF19
:101FF00008C0161617061806991FF1CF86957105A9
:10200000610508940895E894BB2766277727CB01DC
:1020100097F908950E941D100C948E100E94801054
:1020200038F00E94871020F0952311F00C9477105F
:102030000C947D1011240C9404100E94E10F70F395
:10204000959FC1F3950F50E0551F629FF001729F5D
:10205000BB27F00DB11D639FAA27F00DB11DAA1F6C
:10206000649F6627B00DA11D661F829F2227B00DB9
:10207000A11D621F739FB00DA11D621F839FA00D44
:10208000611D221F749F3327A00D611D231F849F94
:10209000600D211D822F762F6A2F11249F575040EB
:1020A0009AF0F1F088234AF0EE0FFF1FBB1F661F66
:1020B000771F881F91505040A9F79E3F510580F02F
:1020C0000C9477100C9404105F3FE4F3983ED4F323
:1020D000869577956795B795F795E7959F5FC1F7D3
:1020E000FE2B880F911D9695879597F9089597F97E
:1020F0009F6780E870E060E008959FEF80EC0895AE
:1021000000240A94161617061806090608950024D6
:102110000A9412161306140605060895092E039450
:10212000000C11F4882352F0BB0F40F4BF2B11F4C4
:1021300060FF04C06F5F7F4F8F4F9F4F0895DB019B
:102140008F939F930E940B11BF91AF91A29F800D1F
:10215000911DA39F900DB29F900D11240895AA1B6D
:10216000BB1B51E107C0AA1FBB1FA617B70710F082
:10217000A61BB70B881F991F5A95A9F780959095B4
:10218000BC01CD01089597FB072E16F4009407D0EB
:1021900077FD09D00E94AF1007FC05D03EF4909562
:1021A00081959F4F0895709561957F4F0895052EF5
:1021B00097FB1EF400940E94EE1057FD07D00E947A
:1021C000161107FC03D04EF40C94EE105095409578
:1021D000309521953F4F4F4F5F4F089590958095D3
:1021E000709561957F4F8F4F9F4F0895EE0FFF1FA2
:1021F0000590F491E02D0994A29FB001B39FC00116
:10220000A39F700D811D1124911DB29F700D811D22
:102210001124911D08950E94FC10A59F900DB49F5C
:10222000900DA49F800D911D11240895A1E21A2EF6
:10223000AA1BBB1BFD010DC0AA1FBB1FEE1FFF1F6A
:10224000A217B307E407F50720F0A21BB30BE40BBA
:10225000F50B661F771F881F991F1A9469F7609501
:102260007095809590959B01AC01BD01CF010895BB
:04227000F894FFCF10
:00000001FF
